:020000040800F2
:10000000C806002065010008A51200087511000847
:1000100000000000000000000000000000000000E0
:10002000000000000000000000000000A91200080D
:100030000000000000000000A7120008E9120008FC
:100040007701000800000000770100087701000830
:1000500077010008770100087701000877010008A0
:100060000000000077010008770100087701000810
:100070007701000877010008770100080000000000
:100080005D13000800000000000000007701000878
:1000900000000000770100087701000877010008E0
:1000A0007701000877010008770100087701000850
:1000B00077010008000000000000000000000000C0
:1000C00000F002F800F03EF80CA030C80838241800
:1000D0002D18671EA246AB4654465D46AC4201D180
:1000E00000F030F87E460F3EB6460FCC0126334274
:1000F00000D0FB1A3343A246AB461847D418000081
:10010000F4180000103A02D378C878C1FAD8520720
:1001100001D330C830C101D504680C6070470000BD
:100120000023002400250026103A01D378C1FBD813
:10013000520700D330C100D50B6070471FB51FBDFB
:1001400010B510BD00F04DF81146FFF7F7FF01F0B4
:1001500017FB00F065F803B4FFF7F2FF03BC00F0F3
:100160006BF800000748804707480047FEE7FEE7B6
:10017000FEE7FEE7FEE7FEE704480549054A064BB1
:100180007047000059130008C1000008C800002093
:10019000C8060020C8020020C802002001E004C0F8
:1001A000091F0429FBD28B0701D50280801CC907D7
:1001B00000D00270704700290BD0C30702D0027034
:1001C000401C491E022904D3830702D50280801CEB
:1001D000891EE3E70022EEE70022DFE77047704761
:1001E0007047754600F024F8AE4605006946534650
:1001F000C008C000854618B020B5FFF7BDFF60BC41
:10020000B64600260027C0C5C0C5C0C5C0C5C0C50C
:10021000C0C5C0C5C0C5403D490849008D467047AE
:1002200010B50446C046C0462046FFF794FF10BDF7
:10023000004870471000002001491820ABBEFEE7BF
:10024000260002007047EFF3108072B6FEE7000050
:10025000B0B5044600F0D8F80546601C02D08B48C3
:100260000078041900F0D0F8401BA042FAD3B0BDCA
:10027000F0B588B00B460968002900D1B7E0024606
:100280005C48824201D0052000E003200090012458
:100290000020054606900746019407920FE0384378
:1002A000039F5649086019680846E040069E361DBF
:1002B0000696AD1C0837641C002800D197E0661E26
:1002C00001980596B04001400291ECD00397194681
:1002D0005B6803261F46049637407E1E012E13D806
:1002E000049EAE40079A9268B243CE68AE40164371
:1002F000079A9660DA06D20F059B9A40079B5B68C7
:1003000083431343079A5360032F0B46049E1ED06A
:100310003046A840079AD26882439868A8401043A4
:10032000079AD060022F12D11C20069A10400F2687
:100330008640059AD2089200079B9A18136AB34325
:100340000E6986401E430B461662049E079A30468D
:10035000A84011688143586882033040A840084390
:1003600007990860900F079A039F9CD01821394085
:100370000F208840059FB7431F4EF619376E8743FD
:1003800060360520000782420AD01D48824205D00F
:100390001C488242009804D1022002E0012000E0C3
:1003A0000020884038433060134800685E68F102DE
:1003B00002D5029F384301E0029FB8430E4908600E
:1003C0004868B10201D5384300E0B8430A494860A3
:1003D0000A484068B10301D5384300E0B8430749F3
:1003E00048600868F10300D559E7B84358E708B0FA
:1003F000F0BDC046000C00500018024080180240BA
:100400000004005000080050054800687047C046CE
:100410001E48007802490A68101808607047C046F4
:10042000C0000020B0B50124200294490A680243AC
:100430000A600025284600F009F8002801D020466F
:10044000B0BD00F025F82C462046B0BDB0B505463D
:100450000E4801780124002916D07D20C00001F04B
:100460009CF901468848006801F097F900F06EFB9E
:10047000032D09D8002807D10024E043294622464D
:1004800000F020F8814805602046B0BD040000203F
:1004900082B009484168012211434160416811401E
:1004A00001910199110702680A430260006808403F
:1004B0000090009802B070473C10024080B501F0F7
:1004C00033F980BD80B501F03BF980BDF0B581B056
:1004D000032569020F4E32688A43024332600121CC
:1004E0004A020024904212D16748026870694005B0
:1004F0000DD58F0206205043074901F04EF9801CAC
:10050000401E03D071693942FAD100E02C462046E2
:1005100001B0F0BD0070004040420F00F0B583B064
:100520000D460121002800D1A5E001910290534819
:10053000006807242040A84214D250490868A0430C
:10054000284308604E4EFFF75FFF07464B480068A0
:100550002040A84206D0FFF757FFC01BB042F5D994
:10056000032188E0029B18688107684E0CD541077B
:1005700003D5210332680A4332600F210902326831
:100580008A43996811433160C00719D13B4800681C
:100590002040A84229D939490868A0432843086067
:1005A000374FFFF731FF0646344800682040A84225
:1005B0001BD0FFF729FF801BB842F5D903215AE071
:1005C000586803282FD8810001A251584F4A8F46FE
:1005D000E10500082D06000837060008410600085E
:1005E00011460839096849052CE0029A107840073D
:1005F000464D05D5200329688143D068084328600B
:1006000000F046F8296889093C220A401D498958AA
:100610001F220A40D0401C4908601C480068FFF7B0
:1006200015FF014627E0394A516D0AE011460839A5
:100630000968890306E0114608390968890101E063
:10064000916D8907019916D51168A1430143116085
:100650000B4FFFF7D9FE06462C48006838210140B1
:1006600002984068C000814290D0FFF7CDFE801B09
:10067000B842F1D90321084603B0F0BD0020024082
:1006800088130000901900080000002008000020D6
:1006900010B51E4C20688006400F06D02268382115
:1006A0000A401B48082A07D110BD083C2068800476
:1006B000410F1848C84010BD22680A40102A15D1C1
:1006C000616803220A40032A00D012486168490683
:1006D000490F491C01F061F861684904490E48431B
:1006E0006168490F491C01F058F810BD20680840A6
:1006F000202802D10120C00310BD2068084018281E
:1007000001D0002010BD7D20000210BD0810024065
:1007100000127A000024F400F0B587B00127002809
:1007200000D1F8E1049705900078C007FD4E2CD168
:100730000598007880074CD40598007800070DD5FF
:10074000B06838210140182900D0A6E0306E80073B
:1007500004D505988069002800D1E1E1059800786A
:10076000400700D45FE1B06838210140202900D063
:10077000AAE0F06D800700D452E105988068002857
:1007800000D04DE1002001274BE1B068F16803275C
:100790003A468A433821014010204840821850428E
:1007A0005041082945D0002843D1059842680520CA
:1007B00000048242039200D1B8E0012001048A4281
:1007C00000D1B9E032688A433260810430688843DE
:1007D000B4E0B1683820084010214140F268032796
:1007E0003A4002235340CA185142514100282BD0AD
:1007F000002929D1306801218C02059BDA68002A82
:1008000000D1B8E00722D20290431A690243326055
:100810000802316801433160FFF7F6FD0546306894
:10082000204200D0B7E0FFF7EFFD401B0228F6D9C9
:1008300071E13068800300D47AE7059840680028A9
:1008400000D075E7049F66E131684905059B03D533
:10085000D968002900D1B9E07F21090272688A4372
:10086000596909021143716000280DD10720C002A7
:100870003168814318690843306030688004400F54
:10088000AB49C140AB480160AB480068FFF7DEFDF3
:10089000002800D150E7049F3DE1306E0599896939
:1008A000002900D181E0012108433066FFF7ACFD4B
:1008B0000546306E800700D550E7FFF7A5FD401BC9
:1008C00003270228F5D926E1012003900107F06BE8
:1008D0000840029006D1F06B0843F063F06B0840CB
:1008E000069006980191954C2068C00510D4039895
:1008F0000702206838432060FFF786FD0546206820
:10090000384205D1FFF780FD401B0228F7D975E07A
:1009100005988468052C5BD0012C5DD0F06D03999F
:100920008843F065F06D0421884358E0012081047C
:1009300032680A43326001043068084330600120A5
:100940004404FFF761FD0546039800280FD0306886
:10095000204200D0ECE6FFF757FD401B6428F6D993
:10096000D9E0FFF751FD401B642800D9D3E030687F
:100970002042F6D1DCE6090288433060FFF744FDEF
:1009800005463068204200D1D6E6FFF73DFD401B0A
:100990000228F6D9BFE07F200002716881430598E4
:1009A0004069000208437060C6E601218843306652
:1009B000FFF72AFD0546306E800700D4CEE6FFF72C
:1009C00023FD401B03270228F5D9A4E0049FA2E0E1
:1009D000F06D04210143F165F06D03990843F06562
:1009E000574FFFF711FD0546002C0FD0F06D800723
:1009F0000FD4FFF709FD401BB842F7D900200327A9
:100A00000FE0FFF701FD401BB842F7D8F06D8007FB
:100A1000F7D40298002803D1F06B01998843F06362
:100A20000120002877D00598C469002C72D0B068E6
:100A300038210140102903D1012C18D1049F6AE00C
:100A4000012739063068049188433060FFF7DCFCE9
:100A50000546022C2CD103977C063068204232D008
:100A6000FFF7D2FC401B03270228F6D953E0F068B9
:100A700003210140059B1A6A91424FD17021014028
:100A80005A6A914250D17F21090201409A6A1202AA
:100A900091424BD11F2149040140DA6A9142049FDF
:100AA00039D1072149070840196B884233D131E019
:100AB0007C063068204229D0FFF7A6FC401B0327A4
:100AC0000228F6D927E0F0681F490140059F20372A
:100AD000ADCF084310431902014329433943F16064
:100AE000306804990843306003980007F1680143B7
:100AF000F160FFF789FC0546306820420AD1FFF714
:100B000083FC401B03270228F6D904E0F0680D4956
:100B10000140F1600027F8B207B0F0BD049FFAE78A
:100B2000049FF8E700100240049FF4E7049FF2E7F7
:100B30000024F400000000200800002000700040A5
:100B400088130000FCFFFEEF8C80C11F80B500F011
:100B5000B7FB80BD7047704770470000F0B53C227E
:100B6000825C012A01D10220F0BD02463C32022300
:100B7000537001231370006846688468434DA8428F
:100B800001D0374604E00F273F05BE434F68374387
:100B90007026B7430E683E434660A84202D0E34D3C
:100BA000A84204D18025AC4389682143816000209C
:100BB00010705370F0BDC046B0B500281FD0044679
:100BC00005463C356878002804D10020287020466E
:100BD00000F018F80220687001CC214600F0C6FB36
:100BE00001202873A870E87028716871A871E871F5
:100BF00028726872A872E87268700020B0BD012087
:100C0000B0BD000010B582B00068C849884201D06C
:100C100002B010BD0948016802221143016000685A
:100C20001040019001981024012100222046FFF776
:100C300049FC2046FFF742FC02B010BD3C100240C8
:100C400010B53D21415C012918D101463D310222F8
:100C50000A7001680D48814202D0B44881420FD128
:100C600088680B4A02400020062A0ED001231C048B
:100C7000A2420AD00A681A430A6010BD012010BDC2
:100C80000868012202430A60002010BD002C0140C8
:100C900007000100F0B581B004463C20205C01282B
:100CA00001D1022360E026463C3602207070012705
:100CB0003770206882682F4B134083600A680025D4
:100CC0004F2A0EDC1F2A25DD202A27D0302A25D0E6
:100CD000402A4CD1CA68496800F002FD20684021D2
:100CE0003DE06F2A1CDD7B039A4224D03B039A42ED
:100CF0002B4637D0702A3AD14A6800928A68CB686E
:100D00001146009A00F083FB2068816877220A432D
:100D1000826026E0002A01D0102A28D111461EE068
:100D2000502A16D0602A22D1CA68496800F0E9FC2E
:100D30002068602113E04A6800928A68CB681146F7
:100D4000009A00F064FBB80321688A6802438A6055
:100D500007E0CA68496800F0C3FC2068502100F031
:100D600061FB2B4635707770184601B0F0BD3B46ED
:100D7000F8E7C0468800CEFF70470000B0B50446D3
:100D8000006801698907554D16D5C168890713D5D3
:100D90002946FE310161012121778069800703D056
:100DA0002046FFF7E9FF05E0204600F0C3F82046A3
:100DB00000F06CF90020207720680169490717D5F9
:100DC000C168490714D52946FC3101610221217708
:100DD00080698005800F03D02046FFF7CDFF05E036
:100DE000204600F0A7F8204600F050F900202077B8
:100DF00020680169090716D5C168090713D5294676
:100E0000F831016104212177C069800703D02046B1
:100E1000FFF7B2FF05E0204600F08CF8204600F016
:100E200035F90020207720680169C90617D5C16807
:100E3000C90614D52946F031016108212177C0691E
:100E40008005800F03D02046FFF796FF05E020467F
:100E500000F070F8204600F019F900202077206893
:100E60000169C90708D0C168C90705D02946FF3103
:100E70000161204600F07CF920680169090608D567
:100E8000C168090605D52946803101612046FFF772
:100E900062FE20680169C90506D5C168090603D547
:100EA00005612046FFF756FE20680169490608D50E
:100EB000C168490605D52946C0310161204600F0C8
:100EC00058F920680169890607D5C168890604D5E3
:100ED000E03505612046FFF73FFEB0BDFFFEFFFF96
:100EE00080B586B000210591049103910291019192
:100EF0000068EB4A904201D006B080BDBD48026850
:100F000004231A43026000681840009001200590F5
:100F1000049103910220029040200190009804481F
:100F200001A9FFF7A5F906B080BDC0460004004046
:100F3000000800507047000070B505463C20285C52
:100F4000012801D1022070BD0C462E463C360120FE
:100F500030700221CA41052A6FD8C0467A441279FE
:100F6000520097440212243446552868214600F066
:100F700063FA2868816908220A4382618169042230
:100F8000914381612169183053E02868214600F0BF
:100F900097FA0121CA022868836913438361890291
:100FA00082698A43826121690902183041E0286818
:100FB000214600F0C1FA2868C16908220A43C261CB
:100FC000C16904229143C16121691C3031E0286864
:100FD000214600F0F1FA0121CA022868C3691343CF
:100FE000C3618902C2698A43C261216909021C3056
:100FF0001FE02868214600F00FFB2868416D082299
:101000000A434265416D04229143416521690FE025
:101010002868214600F02EFB0121CA022868436D92
:10102000134343658902426D8A434265216909027F
:10103000543002680A43026000200021317070BD04
:10104000B0B500281FD0044605463C356878002816
:1010500004D100202870204600F017F802206870A4
:1010600001CC214600F082F901202873A870E870B5
:1010700028716871A871E87128726872A872E872A4
:1010800068700020B0BD0120B0BD704770470000FF
:10109000B0B504463E300029024614D00A1F022390
:1010A000DA41032A0ED8C0467A4412795200974496
:1010B00001030507421C06E0821C04E0C21C02E09A
:1010C000021D00E0421D1278012A0FD100290FD025
:1010D0000B1F0222D341032B0DD8C0467B441B7942
:1010E0005B009F44010A0C0E42700BE00120B0BD72
:1010F0000222027006E0427104E0827002E0C270D7
:1011000000E00271206801252A4600F073F9216889
:101110001548814206DCB448814213D0E54881423B
:1011200006D01CE0E448814202D0E448814216D156
:10113000E8034A6C02434A64DE48814202D0AA486E
:1011400081420CD18868094A02400020062A0AD050
:101150002B049A4207D00A682A430A60B0BD086887
:10116000284308600020B0BDFF4301400700010094
:1011700070477047FEE7000070B50F4C00202080DC
:10118000464E794D296880B248630320FFF760F826
:101190002088401C208081B2B142F3D32680286889
:1011A000B1B241630320FFF753F82088461E268022
:1011B0003004F4D170BDC046BC00002083B00D489F
:1011C00001682022114301600168114002910299D7
:1011D00001680422114301600168114001910199E5
:1011E00001680122114301600068104000900098DE
:1011F00003B070473410024010B58EB000240D9437
:101200000C940B940A9409940894079456488021EE
:10121000816122493F22744B036042608460C16057
:101220000461069405940494039402940194009438
:10123000FFF7C2FC002801D0FFF705F801200003EA
:101240000A9049480AA9FFF725FD002801D0FEF7BA
:10125000FAFF4548FFF7F4FE002801D0FEF7F3FF40
:1012600009940794404807A9FFF778FC002801D0AB
:10127000FEF7E9FF049402940A2001906020009098
:10128000394869462246FFF757FE002801D0FEF78D
:10129000DAFF3548FFF724FE0EB010BDE70300006B
:1012A00000040040FEE770477047000010B52E4C68
:1012B0002046FFF7C5FC00212046FFF7E9FE10BDE0
:1012C000B0B5401E010E01D00120B0BD054D6860D3
:1012D0000024E043032100F033FAAC6007202860CB
:1012E0002046B0BD10E000E080B5FFF791F880BD6A
:1012F000F0B591B004AC34212046FEF76DFF002616
:10130000039602960196009601277802FFF7DEF811
:101310007807109078040F9008200E900D96022503
:101320000C950B954020099008963802079004957B
:101330002046FFF7F1F900280CD10396029607200A
:101340000090019568462946FFF7E8F8002801D18A
:1013500011B0F0BDFEF777FF7047000080B502487E
:10136000FFF70CFD80BDC0467000002010B504687A
:10137000D74A904202D01C4B984204D170239C4320
:101380004B68234300E02346184CA04208DD9042FE
:101390000CD0D04CA04209D0CF4CA04206D020E0C7
:1013A000114CA04202D0124CA0421AD103242402B4
:1013B000A343CC681C4380239C434B6923430360B5
:1013C0008B68C3620B688362904205D0C14A904229
:1013D00002D0C14A904201D10969016301214161F2
:1013E00010BD1C46E7E7C04600040040FF2B01404B
:1013F0000020004010B51F230B4001219940046AD2
:101400008C4304629A40016A1143016210BDB0B579
:10141000FF2424028568A54311431A020A432A4384
:101420008260B0BD8268034B13400B430721194310
:101430008160704788FFCFFFF0B581B0026A012359
:101440009A430262026A02239A438E6816434468F2
:101450000A68009283699E4FB84205D09D4DA8420C
:1014600002D09D4DA84208D10C25AE43CD68042280
:1014700095433543B84203D108E03546B84205D01C
:10148000944A904202D0944A904207D10322120219
:1014900094434E698A692643164300E02646466017
:1014A000444A1340009A13438361496841630562CB
:1014B00001B0F0BD002C0140004801400044014053
:1014C000F0B581B0026A10239A430262026A2023B7
:1014D0009A438B681E01164344680A680092826929
:1014E0007B4FB84203D03546B84209D10EE0C02543
:1014F000AE43CD682D0140239D433543B84205D00E
:10150000744B984202D0744B984208D103239B023B
:101510009C434B698E699B002343B4001C43446089
:101520003C4B1A40009B1B02134383614968816353
:10153000056201B0F0BDC046F0B581B001221302D2
:10154000046A9C4304625202036A93438A68160247
:101550001E4344680A680092C3695D4FB84203D0D5
:101560003546B8420AD10FE00325AD02AE43CD683F
:101570002A020F4D15403543B84205D0554A9042D6
:1015800002D0554A904208D10322120394434A697B
:101590008E6912012243340114434460054A13400A
:1015A000009A1343C3614968C163056201B0F0BD8D
:1015B00000FBFFFF8CFFFEFFF0B581B0012213039B
:1015C000046A9C430462036A44688D6800950E684F
:1015D000C5693F4FB84205D03E4FB84202D03E4F9A
:1015E000B84205D19703BC434F69BF01274300E0D0
:1015F00027464760074C254034022C43C4614968A4
:10160000016451038B43009909031943016201B03E
:10161000F0BDC046FF8CFFFEF0B581B0026A144CED
:1016200022400262026A43688D6800950D68466D2B
:10163000274FB84205D0274FB84202D0264FB842B4
:1016400004D123404F693F021F4300E01F4647601B
:10165000703C26402E434665496881650121490456
:101660008A43009909041143016201B0F0BDC046EC
:10167000FFFFFEFFF0B581B001221305046A9C4311
:101680000462036A44688D6800950E68456D104FCA
:10169000B84205D00F4FB84202D00F4FB84205D123
:1016A0009704BC434F69BF02274300E027464760C9
:1016B0000A4C254034022C4344654968C1655105F4
:1016C0008B43009909051943016201B0F0BDC04682
:1016D000002C01400048014000440140FF8FFFFE04
:1016E000B0B5036A046A0125AC4304628469F0253D
:1016F000AC431201224382610A2293430B430362EB
:10170000B0BD10B5036A1024A34303620F231B036B
:1017100084699C4312032243036A8261A02293439B
:1017200009011943016210BD002805D41F2108409A
:1017300001218140014801607047C04600E100E09E
:10174000002805D40322034693430C4A9A1806E066
:101750000F220240083A03239A43074BD21880070E
:10176000C00E8901C9B28140FF23834010689843AD
:10177000084310607047C0461CED00E000E400E044
:10178000FEF750FEFFF7B4FDFFF718FDFFF734FD3D
:10179000FFF78CFDFFF7F0FCFCE743088B421AD300
:1017A000002203098B4279D3030A8B425ED3030BD9
:1017B0008B4242D3030C8B4227D30902FF2212BA79
:1017C000030C8B4202D31212090203D0030B8B428B
:1017D00033D31AE0D3E0411A8041401C70470346DE
:1017E0000B4371D443088B42F5D3002203098B428B
:1017F00054D3030A8B4239D3030B8B421DD3030C02
:101800008B4202D394466EE0090AC30B8B4201D38C
:10181000CB03C01A5241830B8B4201D38B03C01AF6
:101820005241430B8B4201D34B03C01A5241030B6D
:101830008B4201D30B03C01A5241C30A8B4201D31E
:10184000CB02C01A5241830A8B4201D38B02C01AC9
:101850005241430A8B4201D34B02C01A5241030A40
:101860008B4201D30B02C01A5241CDD2C3098B4225
:1018700001D3CB01C01A524183098B4201D38B01A2
:10188000C01A524143098B4201D34B01C01A524145
:1018900003098B4201D30B01C01A5241C3088B428A
:1018A00001D3CB00C01A524183088B4201D38B0075
:1018B000C01A524143088B4201D34B00C01A524117
:1018C000411A524110007047CA0F00D0494203101C
:1018D00000D34042534000229C4603098B422DD343
:1018E000030A8B4212D38901FC2212BA030A8B42EB
:1018F0000CD3890192118B4208D3890192118B423A
:1019000004D3890137D0921100E08909C3098B42C1
:1019100001D3CB01C01A524183098B4201D38B0101
:10192000C01A524143098B4201D34B01C01A5241A4
:1019300003098B4201D30B01C01A5241C3088B42E9
:1019400001D3CB00C01A524183088B4201D38B00D4
:10195000C01A5241D9D243088B4201D34B00C01A5E
:101960005241411A00D201465241104663465B1073
:1019700000D34042704763465B1000D3404201B53C
:101980000021004201D0C9430846C046C04602BDFE
:101990000000000000000000000000000000000047
:1019A0000000000000000000000000000000000037
:1019B000010000000200000003000000040000001D
:1019C00006000000070000000800000009000000F9
:1019D000F0190008000000201000000004010008B9
:1019E000001A000810000020B806000020010008BE
:1019F0000024F400010000000400000000000000CA
:04000005080000C12E
:00000001FF
