:020000040800F2
:10000000C806002065010008FD1100089D100008C9
:1000100000000000000000000000000000000000E0
:1000200000000000000000000000000001120008B5
:100030000000000000000000FF1100084912000845
:100040007701000800000000770100087701000830
:1000500077010008770100087701000877010008A0
:100060000000000077010008770100087701000810
:100070007701000877010008770100080000000000
:100080007701000800000000000000007701000870
:1000900000000000770100087701000877010008E0
:1000A0007701000877010008770100087701000850
:1000B00077010008000000000000000000000000C0
:1000C00000F002F800F03EF80CA030C80838241800
:1000D0002D18671EA246AB4654465D46AC4201D180
:1000E00000F030F87E460F3EB6460FCC0126334274
:1000F00000D0FB1A3343A246AB4618472C18000029
:100100004C180000103A02D378C878C1FAD85207C8
:1001100001D330C830C101D504680C6070470000BD
:100120000023002400250026103A01D378C1FBD813
:10013000520700D330C100D50B6070471FB51FBDFB
:1001400010B510BD00F04DF81146FFF7F7FF01F0B4
:10015000C3FA00F065F803B4FFF7F2FF03BC00F048
:100160006BF800000748804707480047FEE7FEE7B6
:10017000FEE7FEE7FEE7FEE704480549054A064BB1
:1001800070470000B9120008C1000008C800002034
:10019000C8060020C8020020C802002001E004C0F8
:1001A000091F0429FBD28B0701D50280801CC907D7
:1001B00000D00270704700290BD0C30702D0027034
:1001C000401C491E022904D3830702D50280801CEB
:1001D000891EE3E70022EEE70022DFE77047704761
:1001E0007047754600F024F8AE4605006946534650
:1001F000C008C000854618B020B5FFF7BDFF60BC41
:10020000B64600260027C0C5C0C5C0C5C0C5C0C50C
:10021000C0C5C0C5C0C5403D490849008D467047AE
:1002200010B50446C046C0462046FFF794FF10BDF7
:10023000004870471000002001491820ABBEFEE7BF
:10024000260002007047EFF3108072B6FEE7000050
:10025000B0B5044600F0D8F80546601C02D08B48C3
:100260000078041900F0D0F8401BA042FAD3B0BDCA
:10027000F0B588B00B460968002900D1B7E0024606
:100280005C48824201D0052000E003200090012458
:100290000020054606900746019407920FE0384378
:1002A000039F5649086019680846E040069E361DBF
:1002B0000696AD1C0837641C002800D197E0661E26
:1002C00001980596B04001400291ECD00397194681
:1002D0005B6803261F46049637407E1E012E13D806
:1002E000049EAE40079A9268B243CE68AE40164371
:1002F000079A9660DA06D20F059B9A40079B5B68C7
:1003000083431343079A5360032F0B46049E1ED06A
:100310003046A840079AD26882439868A8401043A4
:10032000079AD060022F12D11C20069A10400F2687
:100330008640059AD2089200079B9A18136AB34325
:100340000E6986401E430B461662049E079A30468D
:10035000A84011688143586882033040A840084390
:1003600007990860900F079A039F9CD01821394085
:100370000F208840059FB7431F4EF619376E8743FD
:1003800060360520000782420AD01D48824205D00F
:100390001C488242009804D1022002E0012000E0C3
:1003A0000020884038433060134800685E68F102DE
:1003B00002D5029F384301E0029FB8430E4908600E
:1003C0004868B10201D5384300E0B8430A494860A3
:1003D0000A484068B10301D5384300E0B8430749F3
:1003E00048600868F10300D559E7B84358E708B0FA
:1003F000F0BDC046000C00500018024080180240BA
:100400000004005000080050054800687047C046CE
:100410001E48007802490A68101808607047C046F4
:10042000C0000020B0B50124200292490A680243AE
:100430000A600025284600F009F8002801D020466F
:10044000B0BD00F025F82C462046B0BDB0B505463D
:100450000E4801780124002916D07D20C00001F04B
:1004600048F901468648006801F043F900F06AFB4C
:10047000032D09D8002807D10024E043294622464D
:1004800000F01CF87F4805602046B0BD0600002043
:1004900082B009484168012211434160416811401E
:1004A00001910199110702680A430260006808403F
:1004B0000090009802B070473C10024080B501F0F7
:1004C000DDF880BDF0B581B0032569020F4E3268BA
:1004D0008A430243326001214A020024904212D131
:1004E00067480268706940050DD58F0206205043A9
:1004F000074901F0FEF8801C401E03D071693942A3
:10050000FAD100E02C46204601B0F0BD007000405A
:1005100040420F00F0B583B00D460121002800D104
:10052000A5E0019102905348006807242040A842AA
:1005300014D250490868A043284308604E4EFFF784
:1005400063FF07464B4800682040A84206D0FFF7EB
:100550005BFFC01BB042F5D9032188E0029B1868FD
:100560008107684E0CD5410703D5210332680A4341
:1005700032600F21090232688A4399681143316061
:10058000C00719D13B4800682040A84229D9394901
:100590000868A04328430860374FFFF735FF064639
:1005A000344800682040A8421BD0FFF72DFF801B75
:1005B000B842F5D903215AE0586803282FD88100A2
:1005C00001A251584F4A8F46D90500082506000858
:1005D0002F06000839060008114608390968490540
:1005E0002CE0029A10784007464D05D52003296873
:1005F0008143D0680843286000F046F829688909DB
:100600003C220A401D4989581F220A40D0401C49FB
:1006100008601C480068FFF719FF014627E0394AC7
:10062000516D0AE0114608390968890306E0114650
:1006300008390968890101E0916D8907019916D58A
:100640001168A143014311600B4FFFF7DDFE064621
:100650002C4800683821014002984068C00081425F
:1006600090D0FFF7D1FE801BB842F1D90321084694
:1006700003B0F0BD0020024088130000E818000815
:10068000000000200800002010B51E4C20688006E5
:10069000400F06D0226838210A401B48082A07D19B
:1006A00010BD083C20688004410F1848C84010BDA8
:1006B00022680A40102A15D1616803220A40032AE1
:1006C00000D0124861684906490F491C01F011F831
:1006D00061684904490E48436168490F491C01F0AB
:1006E00008F810BD20680840202802D10120C0036E
:1006F00010BD20680840182801D0002010BD7D20C2
:10070000000210BD0810024000127A000024F4001C
:10071000F0B587B00127002800D1F8E104970590D3
:100720000078C007FD4E2CD10598007880074CD486
:100730000598007800070DD5B068382101401829C8
:1007400000D0A6E0306E800704D5059880690028A7
:1007500000D1E1E105980078400700D45FE1B0687E
:1007600038210140202900D0AAE0F06D800700D494
:1007700052E105988068002800D04DE10020012753
:100780004BE1B068F16803273A468A4338210140BB
:1007900010204840821850425041082945D0002876
:1007A00043D105984268052000048242039200D19B
:1007B000B8E0012001048A4200D1B9E032688A43DE
:1007C0003260810430688843B4E0B1683820084062
:1007D00010214140F26803273A4002235340CA18CF
:1007E0005142514100282BD0002929D130680121E4
:1007F0008C02059BDA68002A00D1B8E00722D202F9
:1008000090431A6902433260080231680143316043
:10081000FFF7FAFD05463068204200D0B7E0FFF749
:10082000F3FD401B0228F6D971E13068800300D443
:100830007AE705984068002800D075E7049F66E1D4
:1008400031684905059B03D5D968002900D1B9E075
:100850007F21090272688A43596909021143716054
:1008600000280DD10720C002316881431869084370
:10087000306030688004400FAB49C140AB48016034
:10088000AB480068FFF7E2FD002800D150E7049F65
:100890003DE1306E05998969002900D181E001218F
:1008A00008433066FFF7B0FD0546306E800700D57F
:1008B00050E7FFF7A9FD401B03270228F5D926E1E1
:1008C000012003900107F06B0840029006D1F06B05
:1008D0000843F063F06B0840069006980191954C30
:1008E0002068C00510D403980702206838432060B0
:1008F000FFF78AFD05462068384205D1FFF784FDE1
:10090000401B0228F7D975E005988468052C5BD058
:10091000012C5DD0F06D03998843F065F06D0421E2
:10092000884358E00120810432680A4332600104A0
:1009300030680843306001204404FFF765FD054638
:10094000039800280FD03068204200D0ECE6FFF773
:100950005BFD401B6428F6D9D9E0FFF755FD401B2D
:10096000642800D9D3E030682042F6D1DCE60902E1
:1009700088433060FFF748FD05463068204200D1CB
:10098000D6E6FFF741FD401B0228F6D9BFE07F20E5
:100990000002716881430598406900020843706055
:1009A000C6E6012188433066FFF72EFD0546306E0E
:1009B000800700D4CEE6FFF727FD401B032702285F
:1009C000F5D9A4E0049FA2E0F06D04210143F16594
:1009D000F06D03990843F065574FFFF715FD054685
:1009E000002C0FD0F06D80070FD4FFF70DFD401BDA
:1009F000B842F7D9002003270FE0FFF705FD401BA1
:100A0000B842F7D8F06D8007F7D40298002803D1D8
:100A1000F06B01998843F0630120002877D0059896
:100A2000C469002C72D0B06838210140102903D16C
:100A3000012C18D1049F6AE001273906306804911F
:100A400088433060FFF7E0FC0546022C2CD1039769
:100A50007C063068204232D0FFF7D6FC401B0327CB
:100A60000228F6D953E0F06803210140059B1A6A79
:100A700091424FD1702101405A6A914250D17F2159
:100A8000090201409A6A120291424BD11F21490486
:100A90000140DA6A9142049F39D107214907084091
:100AA000196B884233D131E07C063068204229D06E
:100AB000FFF7AAFC401B03270228F6D927E0F068BD
:100AC0001F490140059F2037ADCF0843104319024D
:100AD000014329433943F160306804990843306089
:100AE00003980007F1680143F160FFF78DFC0546AC
:100AF000306820420AD1FFF787FC401B03270228F9
:100B0000F6D904E0F0680D490140F1600027F8B221
:100B100007B0F0BD049FFAE7049FF8E70010024019
:100B2000049FF4E7049FF2E70024F4000000002093
:100B3000080000200070004088130000FCFFFEEF5A
:100B40008C80C11F80B500F06BFB80BDF0B581B01B
:100B50003C22825C012A02D1022001B0F0BD024693
:100B60003C32012313703F242402CD68A5430F2497
:100B7000A6028F68B7432F434D68204E2E403E4358
:100B8000F7252D030F68AF4337437B256D030E69AF
:100B9000AE433E434D6935433D26B603B543240479
:100BA0000F6BA7432F438C6926043E430468AB4D6B
:100BB000AC4204D03046AC4207D0054619E01807D5
:100BC0008643C8693043AC42F7D10D4D28400E6AC8
:100BD0004D6A8F6AC96A00913F050A49394001434D
:100BE0001120400686430E4358078543354300983D
:100BF000054300201070656401B0F0BDFF87F0FF71
:100C0000FFFF0FDC0000F0DCF0B53C22825C012A23
:100C100001D10220F0BD02463C3202235370012371
:100C200013700068466884688C4DA84201D037462E
:100C300004E00F273F05BE434F6837437026B74394
:100C40000E683E434660A84202D0374DA84204D108
:100C50008025AC4389682143816000201070537067
:100C6000F0BDC046B0B500281FD0044605463C354F
:100C70006878002804D100202870204600F018F879
:100C80000220687001CC214600F018FB0120287377
:100C9000A870E87028716871A871E871287268728C
:100CA000A872E87268700020B0BD0120B0BD0000DD
:100CB00081B00068F749884201D001B07047012037
:100CC000C00205490A6802430A60096801400091B0
:100CD000009801B07047C0464010024010B53D2159
:100CE000415C012918D101463D3102220A70016898
:100CF000E848814202D0E64881420FD18868E64A3E
:100D000002400020062A0ED001231C04A2420AD071
:100D10000A681A430A6010BD012010BD086801224C
:100D200002430A60002010BD00040040F0B581B00D
:100D300004463C20205C012801D1022360E02646C5
:100D40003C360220707001273770206882682F4B74
:100D5000134083600A6800254F2A0EDC1F2A25DD18
:100D6000202A27D0302A25D0402A4CD1CA68496889
:100D700000F060FC206840213DE06F2A1CDD7B0311
:100D80009A4224D03B039A422B4637D0702A3AD15C
:100D90004A6800928A68CB681146009A00F0DFFA30
:100DA0002068816877220A43826026E0002A01D009
:100DB000102A28D111461EE0502A16D0602A22D1CE
:100DC000CA68496800F047FC2068602113E04A685F
:100DD00000928A68CB681146009A00F0C0FAB80306
:100DE00021688A6802438A6007E0CA68496800F09F
:100DF00021FC2068502100F0BDFA2B463570777039
:100E0000184601B0F0BD3B46F8E7C0468800CEFF6B
:100E100080B586B000210591049103910291019162
:100E20000068F44A904201D006B080BDB64802681E
:100E300001231A43026000681840009002200590C8
:100E40000491039102901802019005200007009977
:100E500001A9FFF70DFA06B080BDC046002C014085
:100E600070B505463C20285C012801D1022070BDE8
:100E70000C462E463C36012030700221CA41052A1C
:100E80006FD8C0467A441279520097440212243433
:100E900046552868214600F077FA286881690822BB
:100EA0000A4382618169042291438161216918307A
:100EB00053E02868214600F0ABFA0121CA022868F5
:100EC000836913438361890282698A43826121694C
:100ED0000902183041E02868214600F0D5FA286858
:100EE000C16908220A43C261C16904229143C161F8
:100EF00021691C3031E02868214600F007FB012100
:100F0000CA022868C3691343C3618902C2698A435C
:100F1000C261216909021C301FE02868214600F0E7
:100F200025FB2868416D08220A434265416D042271
:100F30009143416521690FE02868214600F044FB98
:100F40000121CA022868436D134343658902426D3B
:100F50008A43426521690902543002680A430260EB
:100F600000200021317070BDB0B500281FD00446AC
:100F700005463C356878002804D1002028702046BA
:100F800000F017F80220687001CC214600F096F9B5
:100F900001202873A870E87028716871A871E87141
:100FA00028726872A872E87268700020B0BD0120D3
:100FB000B0BD7047B0B504463E300029024614D09B
:100FC0000A1F0223DA41032A0ED8C0467A44127956
:100FD0005200974401030507421C06E0821C04E00E
:100FE000C21C02E0021D00E0421D1278012A0FD14E
:100FF00000290FD00B1F0222D341032B0DD8C0466E
:101000007B441B795B009F44010A0C0E42700BE08D
:101010000120B0BD0222027006E0427104E082703D
:1010200002E0C27000E00271206801252A4600F04B
:1010300089F921681548814206DCBF48814213D0F6
:10104000F048814206D01CE0EF48814202D0EF48D0
:10105000814216D1E8034A6C02434A64E94881425E
:1010600002D0B54881420CD188680B4A024000206A
:10107000062A0AD02B049A4207D00A682A430A603B
:10108000B0BD0868284308600020B0BDFF430140A0
:1010900000040040002C014007000100FEE70000B2
:1010A000B0B50C4801884A1C02807D218B000A499A
:1010B0000C880A4DAC4200D30B8092B29A4201D9FF
:1010C000002202800988008800F0FEFA0120FFF764
:1010D000BFF8B0BDBC00002004000020C50900001E
:1010E00082B0094801682022114301600168114063
:1010F00001910199016801221143016000681040CB
:101100000090009802B0704734100240B0B59CB017
:1011100000241B941A9419941894179416941594F7
:10112000149413941294119410940F940E9401A893
:101130003421FFF751F8394880212D4A3F23F04DE3
:10114000056043608460C260046144618161FFF7AF
:1011500089FD002801D0FFF776F8012528031890B3
:101160002E4818A9FFF7E2FD002801D0FFF76BF821
:101170002A48FFF7F9FE002801D0FFF764F817941A
:1011800016941594254815A9FFF73EFD002801D0B7
:10119000FFF759F8109418480F9060200E901194A2
:1011A0001294139414941D480EA92246FFF758FE7A
:1011B000002801D0FFF747F80594049403940294A3
:1011C00001940D940C940B94099408940794680668
:1011D0000A9068030690114801A9FFF7B7FC0028A0
:1011E00001D0FFF730F80D48FFF712FE1CB0B0BD7C
:1011F000E7030000002C014010270000FEE77047C5
:101200007047000010B5054C2046FFF767FD002130
:101210002046FFF7CFFE00F051FA10BD700000200D
:10122000B0B5401E010E01D00120B0BD054D686073
:101230000024E043032100F021FAAC60072028607D
:101240002046B0BD10E000E080B5FFF7E1F880BDBA
:10125000F0B591B004AC34212046FEF7BDFF002666
:10126000039602960196009601277802FFF72AF965
:101270007807109078040F9008200E900D960225A4
:101280000C950B954020099008963802079004951C
:101290002046FFF73DFA00280CD10396029607205E
:1012A0000090019568462946FFF734F9002801D1DE
:1012B00011B0F0BDFEF7C7FF7047000010B504681D
:1012C000D84A904202D01C4B984204D170239C43D0
:1012D0004B68234300E02346184CA04208DD9042AF
:1012E0000CD0D14CA04209D0D04CA04206D020E076
:1012F000114CA04202D0124CA0421AD10324240265
:10130000A343CC681C4380239C434B692343036065
:101310008B68C3620B688362904205D0C24A9042D8
:1013200002D0C24A904201D10969016301214161A1
:1013300010BD1C46E7E7C04600040040FF2B0140FB
:101340000020004010B51F230B4001219940046A82
:101350008C4304629A40016A1143016210BDB0B52A
:10136000FF2424028568A54311431A020A432A4335
:101370008260B0BD8268034B13400B4307211943C1
:101380008160704788FFCFFFF0B581B0026A01230A
:101390009A430262026A02239A438E6816434468A3
:1013A0000A68009283699F4FB84205D09E4DA842BB
:1013B00002D09E4DA84208D10C25AE43CD68042230
:1013C00095433543B84203D108E03546B84205D0CD
:1013D000954A904202D0954A904207D103221202C8
:1013E00094434E698A692643164300E026464660C8
:1013F000454A1340009A134383614968416305627B
:1014000001B0F0BD002C0140004801400044014003
:10141000F0B581B0026A10239A430262026A202367
:101420009A438B681E01164344680A6800928269D9
:101430007C4FB84203D03546B84209D10EE0C025F2
:10144000AE43CD682D0140239D433543B84205D0BE
:10145000754B984202D0754B984208D103239B02EA
:101460009C434B698E699B002343B4001C4344603A
:101470003D4B1A40009B1B02134383614968816303
:10148000056201B0F0BDC046F0B581B00122130283
:10149000046A9C4304625202036A93438A681602F8
:1014A0001E4344680A680092C3695E4FB84203D085
:1014B0003546B8420AD10FE00325AD02AE43CD68F0
:1014C0002A02104D15403543B84205D0564A904285
:1014D00002D0564A904208D10322120394434A692B
:1014E0008E6912012243340114434460064A1340BA
:1014F000009A1343C3614968C163056201B0F0BD3E
:10150000002C014000FBFFFF8CFFFEFFF0B581B017
:1015100001221303046A9C430462036A44688D68D1
:1015200000950E68C5693F4FB84205D03E4FB8429E
:1015300002D03E4FB84205D19703BC434F69BF016B
:10154000274300E027464760074C254034022C43E0
:10155000C4614968016451038B430099090319432D
:10156000016201B0F0BDC046FF8CFFFEF0B581B056
:10157000026A144C22400262026A43688D68009538
:101580000D68466D274FB84205D0274FB84202D0AC
:10159000264FB84204D123404F693F021F4300E069
:1015A0001F464760703C26402E434665496881656A
:1015B000012149048A43009909041143016201B0E1
:1015C000F0BDC046FFFFFEFFF0B581B0012213055C
:1015D000046A9C430462036A44688D6800950E683F
:1015E000456D104FB84205D00F4FB84202D00F4F93
:1015F000B84205D19704BC434F69BF02274300E0BE
:10160000274647600A4C254034022C43446549680C
:10161000C16551058B43009909051943016201B069
:10162000F0BDC046002C014000480140004401408C
:10163000FF8FFFFEB0B5036A046A0125AC43046264
:101640008469F025AC431201224382610A2293434C
:101650000B430362B0BD10B5036A1024A3430362B9
:101660000F231B0384699C4312032243036A826194
:10167000A022934309011943016210BD002805D43B
:101680000322034693430C4A9A1806E00F220240B5
:10169000083A03239A43074BD2188007C00E8901EA
:1016A000C9B28140FF23834010689843084310600B
:1016B0007047C0461CED00E000E400E0054800680B
:1016C000002141637047C046024A1268906251632C
:1016D0007047C04670000020FEF7A4FEFFF7B8FD7B
:1016E000FFF7FEFCFFF712FDFFF78CFDFFF7D8FCBC
:1016F000FCE743088B421AD3002203098B4279D3BB
:10170000030A8B425ED3030B8B4242D3030C8B4202
:1017100027D30902FF2212BA030C8B4202D3121202
:10172000090203D0030B8B4233D31AE0D3E0411AF2
:101730008041401C704703460B4371D443088B42E1
:10174000F5D3002203098B4254D3030A8B4239D3C9
:10175000030B8B421DD3030C8B4202D394466EE0E5
:10176000090AC30B8B4201D3CB03C01A5241830B2E
:101770008B4201D38B03C01A5241430B8B4201D3DE
:101780004B03C01A5241030B8B4201D30B03C01A07
:101790005241C30A8B4201D3CB02C01A5241830A81
:1017A0008B4201D38B02C01A5241430A8B4201D3B0
:1017B0004B02C01A5241030A8B4201D30B02C01ADA
:1017C0005241CDD2C3098B4201D3CB01C01A524141
:1017D00083098B4201D38B01C01A524143098B42CA
:1017E00001D34B01C01A524103098B4201D30B01B3
:1017F000C01A5241C3088B4201D3CB00C01A5241D8
:1018000083088B4201D38B00C01A524143088B429C
:1018100001D34B00C01A5241411A52411000704787
:10182000CA0F00D04942031000D340425340002267
:101830009C4603098B422DD3030A8B4212D38901A4
:10184000FC2212BA030A8B420CD3890192118B42FB
:1018500008D3890192118B4204D3890137D09211A8
:1018600000E08909C3098B4201D3CB01C01A524160
:1018700083098B4201D38B01C01A524143098B4229
:1018800001D34B01C01A524103098B4201D30B0112
:10189000C01A5241C3088B4201D3CB00C01A524137
:1018A00083088B4201D38B00C01A5241D9D243081E
:1018B0008B4201D34B00C01A5241411A00D201465B
:1018C0005241104663465B1000D340427047634666
:1018D0005B1000D3404201B50021004201D0C94352
:1018E0000846C046C04602BD0000000000000000DF
:1018F00000000000000000000000000000000000E8
:1019000000000000000000000100000002000000D4
:1019100003000000040000000600000007000000B3
:10192000080000000900000048190008000000201D
:1019300010000000040100085819000810000020E1
:10194000B8060000200100080024F400F4010100A2
:0819500004000000000000008B
:04000005080000C12E
:00000001FF
