:020000040800F2
:10000000C807002065010008411C0008F51700081A
:1000100000000000000000000000000000000000E0
:10002000000000000000000000000000291D000882
:100030000000000000000000431C0008AD1D000887
:100040007701000800000000770100087701000830
:1000500077010008770100087701000877010008A0
:100060000000000077010008770100087701000810
:100070007701000877010008770100080000000000
:100080007701000800000000000000007701000870
:1000900000000000770100087701000877010008E0
:1000A0007701000877010008770100087701000850
:1000B00077010008000000000000000000000000C0
:1000C00000F002F800F03EF80CA030C80838241800
:1000D0002D18671EA246AB4654465D46AC4201D180
:1000E00000F030F87E460F3EB6460FCC0126334274
:1000F00000D0FB1A3343A246AB46184794230000B6
:10010000B4230000103A02D378C878C1FAD8520755
:1001100001D330C830C101D504680C6070470000BD
:100120000023002400250026103A01D378C1FBD813
:10013000520700D330C100D50B6070471FB51FBDFB
:1001400010B510BD00F04DF81146FFF7F7FF02F0B3
:1001500071F800F065F803B4FFF7F2FF03BC00F09C
:100160006BF800000748804707480047FEE7FEE7B6
:10017000FEE7FEE7FEE7FEE704480549054A064BB1
:10018000704700001D1E0008C1000008C8010020C3
:10019000C8070020C8030020C803002001E004C0F5
:1001A000091F0429FBD28B0701D50280801CC907D7
:1001B00000D00270704700290BD0C30702D0027034
:1001C000401C491E022904D3830702D50280801CEB
:1001D000891EE3E70022EEE70022DFE77047704761
:1001E0007047754600F024F8AE4605006946534650
:1001F000C008C000854618B020B5FFF7BDFF60BC41
:10020000B64600260027C0C5C0C5C0C5C0C5C0C50C
:10021000C0C5C0C5C0C5403D490849008D467047AE
:1002200010B50446C046C0462046FFF794FF10BDF7
:10023000004870471800002001491820ABBEFEE7B7
:10024000260002007047000070B501246102154DC0
:100250002846224600F05EFB21022846224600F096
:1002600059FB80212846224600F054FB40212846B5
:10027000224600F04FFB20212846224600F04AFB90
:1002800010212846224600F045FB08262846314624
:10029000224600F03FFB04483146224600F03AFB7C
:1002A00070BDC04600040050000C0050EFF31080F9
:1002B00072B6FEE7C840012108407047F0B587B02C
:1002C0000C460546002106915420285C012801D1E6
:1002D00002260FE005912F46543701263E7028680C
:1002E00001F0A6FA002808D0A86D20210143A965D5
:1002F00005993970304607B0F0BD28696168022958
:100300001DD1042108437249884203D1216828681D
:1003100001F09AFA206800260028E9D501F076FA63
:1003200021686D4A914200D190E06C4A914200D11F
:100330008FE0684A9142DBD10121C9058BE0042698
:100340003043634A90422ED12168286801F074FA44
:10035000A2682168286801F08DFA2068002600282C
:10036000C6D5012501F052FA21685A4A91425FD15F
:10037000EA05034613405BD1104301F087FADC48DD
:100380000068DC4901F069FF0C2141430C31069102
:1003900006980028ACD005990698401E069006984D
:1003A0000028F9D1A5E71F2008400F2302938340BE
:1003B0002A6E9A43049222685303039243D0019316
:1003C000D307059B5DD1039A930755D4530755D4A2
:1003D000130755D4D306334653D4039A93065ED4F9
:1003E00053065ED413065ED4039AD3055DD4039AF4
:1003F00093055CD4039A53055BD4039A13055AD42E
:10040000039AD30459D4039A930458D4039A5304F7
:1004100057D4039A1304029B33D4039AD30352D4C0
:10042000039A930351D4019AD6171223334028E03C
:10043000294A914213D12A06034613400FD1104393
:1004400001F024FA54E75300DB0E1AE001210906FB
:1004500001E001218905884301F018FA48E71F4AA5
:10046000914200D044E7A90502460A4000D03FE788
:10047000084301F00BFA3BE7012302E0022300E00E
:1004800003238340049803432B668808EA69824269
:1004900000D85DE72868039A01F0E0F958E70523E2
:1004A000EFE70623EDE70723EBE70823E9E7092356
:1004B000E7E70A23E5E70B23E3E70C23E1E70D2356
:1004C000DFE70E23DDE71023DBE71123D9E7C04682
:1004D00004000080001000B0004000B8002000B40C
:1004E000F0B589B00024089400282BD00546806D13
:1004F000002807D12E465436284600F005F9002082
:100500003070E865286801F08FF900281CD0286851
:1005100001F08AF9002807D1A86D10210143A965CF
:10052000E86D01242043E8652F465837286801F01C
:100530007FF9A96D102211400143A86D15D0104319
:10054000012479E0012478E0286801F055F9684831
:100550000068684901F081FE4000801C08900898FE
:100560000028D4D00898401EF8E706920F21059184
:10057000C9430791F3390840801CA865286801F039
:100580004FF9002816D06A6B28680021059101F008
:1005900087F9AA6B28685B4901F082F9286901266E
:1005A0007105884222D000282DD12868816A079AD7
:1005B000114326E02A462032286B411E884103035E
:1005C000A868297E89030143687EC6030E43A87E7E
:1005D000029040033043E968014319430126F007C4
:1005E0002B69002B03902BDA83432AE02868816A69
:1005F000E96989001C311C220A40079B9340296E3F
:10060000194328300160286801F006F9696B8842B7
:1006100007D10598E865A96D0120084302218843A8
:100620000AE0A86D0699084302218843A865E86D91
:1006300030435C352F4634463860204609B0F0BD63
:1006400073051943107B43000B43107801280CD12C
:100650000298002807D0A86D20210143A965E86D04
:100660003043E86501E030040343686A00280496DB
:1006700005D00721890108401843AB6A0343296864
:10068000C8681D4E06401E43CE60032080076E687A
:10069000334602900340E86C127F0343012A0CD1D9
:1006A000286C6A6C0092AA6C01921843009A10435D
:1006B000019A1043049A1043034608690F4A024006
:1006C0001A430A610398864200D15CE70298864289
:1006D00000D158E704988007864200D153E7059877
:1006E0008004064006490A688243901908604AE778
:1006F00000000020400D03000102FEFF02FCFF1F6E
:100700000827014004FFFF0710B588B000210791BA
:100710000691059104910391029100680D4A90425F
:1007200001D008B010BD06910124A003029002A8D8
:1007300000F07CF9002801D0FFF7B8FD200506493C
:100740000A6802430A60096801400191019808B0F3
:1007500010BDC0460024014040100240B0B5044620
:1007600000F0E0F80546601C02D08F4800780419BC
:1007700000F0D8F8401BA042FAD3B0BDF0B588B065
:100780000B460968002900D1B7E002465C48824266
:1007900001D0052000E00320009001240020054640
:1007A00006900746019407920FE03843039F56498D
:1007B000086019680846E040069E361D0696AD1C86
:1007C0000837641C002800D197E0661E0198059642
:1007D000B04001400291ECD0039719465B680326B4
:1007E0001F46049637407E1E012E13D8049EAE404D
:1007F000079A9268B243CE68AE401643079A966055
:10080000DA06D20F059B9A40079B5B68834313432C
:10081000079A5360032F0B46049E1ED03046A84013
:10082000079AD26882439868A8401043079AD0601C
:10083000022F12D11C20069A10400F268640059ADE
:10084000D2089200079B9A18136AB3430E69864038
:100850001E430B461662049E079A3046A840116854
:100860008143586882033040A840084307990860D4
:10087000900F079A039F9CD0182139400F20884081
:10088000059FB7431F4EF619376E87436036052024
:10089000000782420AD01D48824205D01C4882428D
:1008A000009804D1022002E0012000E000208840EE
:1008B00038433060134800685E68F10202D5029F39
:1008C000384301E0029FB8430E4908604868B1020E
:1008D00001D5384300E0B8430A4948600A484068F7
:1008E000B10301D5384300E0B843074948600868C0
:1008F000F10300D559E7B84358E708B0F0BDC0464A
:10090000000C005000180240801802400004005003
:1009100000080050002A02D0182281507047282277
:1009200081507047054800687047C0461E480078EF
:1009300002490A68101808607047C046C0010020CC
:10094000B0B501242002F2490A6802430A6000257A
:10095000284600F009F8002801D02046B0BD00F07C
:1009600025F82C462046B0BDB0B505460E480178A6
:100970000124002916D07D20C00001F06EFC014644
:10098000E648006801F069FC00F02AFC032D09D854
:10099000002807D10024E0432946224600F01CF835
:1009A000DF4805602046B0BD1000002082B0094835
:1009B0004168012211434160416811400191019950
:1009C000110702680A43026000680840009000981E
:1009D00002B070473C10024080B501F00BFC80BDB6
:1009E000F0B581B0032569026E4E32688A43024336
:1009F000326001214A020024904212D1C7480268A5
:100A0000706940050DD58F0206205043064901F05C
:100A100024FC801C401E03D071693942FAD100E0E9
:100A20002C46204601B0F0BD40420F00F0B587B023
:100A30000646807880075A4F01D400253EE005968F
:100A400001221107203F38680840049006D1386819
:100A5000084338603868084006900698029703916A
:100A6000019216024F4C206830432060FFF75AFF76
:100A700005462768374006D1FFF754FF401B03287F
:100A8000F7D3032500E00025059E002F01D1444F38
:100A90000CE003242102424F3868084055D07269A7
:100AA000904256D1C00761D1002D70D00498002823
:100AB00004D1029A10680399884310603068C10716
:100AC00007D0394608390A6803239A4373681343E9
:100AD0000B60810608D5032109033A46083A1368DA
:100AE0008B43B168194311600121420417D53A467E
:100AF000083A13682D4C23400C4629463546366982
:100B000033431360294A521C96422E460D46214615
:100B100005D10A043B46503B1C6814431C60000589
:100B200010D58803032292033B46083B1C6894437C
:100B3000F26814431C60824204D10804503F3968B3
:100B400001433960284607B0F0BD0020C007ABD094
:100B50000CE03868019A12043B6813433B603B6821
:100B600093433B6088433860C0079DD00194FFF7F2
:100B7000D9FE06460C4C3868800705D4FFF7D2FE34
:100B8000801BA042F7D3019D059E002D8ED103202E
:100B9000000239688143706908433860002585E7A1
:100BA0005C1002400070004089130000FFFFFF3F0F
:100BB000F0B583B00D460121002800D1A5E00191D8
:100BC00002905348006807242040A84214D250499C
:100BD0000868A043284308604E4EFFF7A3FE07466F
:100BE0004B4800682040A84206D0FFF79BFEC01B80
:100BF000B042F5D9032188E0029B18688107684E4E
:100C00000CD5410703D5210332680A4332600F2116
:100C1000090232688A43996811433160C00719D1CB
:100C20003B4800682040A84229D939490868A043B8
:100C300028430860374FFFF775FE064634480068C2
:100C40002040A8421BD0FFF76DFE801BB842F5D9AB
:100C500003215AE0586803282FD8810001A2515877
:100C60004F4A8F46750C0008C10C0008CB0C0008D9
:100C7000D50C000811460839096849052CE0029A8C
:100C800010784007464D05D5200329688143D06878
:100C90000843286000F046F8296889093C220A4088
:100CA0001D4989581F220A40D0401C4908601C4831
:100CB0000068FFF759FE014627E0394A516D0AE006
:100CC000114608390968890306E0114608390968A0
:100CD000890101E0916D8907019916D51168A14339
:100CE000014311600B4FFFF71DFE06462C480068BC
:100CF0003821014002984068C000814290D0FFF73F
:100D000011FE801BB842F1D90321084603B0F0BDA3
:100D1000002002408813000050240008000000203A
:100D20001400002010B51E4C20688006400F06D02D
:100D3000226838210A401B48082A07D110BD083C08
:100D400020688004410F1848C84010BD22680A403E
:100D5000102A15D1616803220A40032A00D01248E4
:100D600061684906490F491C01F077FA6168490436
:100D7000490E48436168490F491C01F06EFA10BDE5
:100D800020680840202802D10120C00310BD20683F
:100D90000840182801D0002010BD7D20000210BDA1
:100DA0000810024000127A000024F400F0B587B069
:100DB0000127002800D1F8E1049705900078C007CA
:100DC000FD4E2CD10598007880074CD4059800780A
:100DD00000070DD5B06838210140182900D0A6E0E1
:100DE000306E800704D505988069002800D1E1E1C4
:100DF00005980078400700D45FE1B06838210140D1
:100E0000202900D0AAE0F06D800700D452E10598B7
:100E10008068002800D04DE1002001274BE1B06838
:100E2000F16803273A468A433821014010204840A0
:100E3000821850425041082945D0002843D10598D6
:100E40004268052000048242039200D1B8E00120EC
:100E500001048A4200D1B9E032688A4332608104D9
:100E600030688843B4E0B168382008401021414020
:100E7000F26803273A4002235340CA1851425141B5
:100E800000282BD0002929D1306801218C02059B34
:100E9000DA68002A00D1B8E00722D20290431A692A
:100EA000024332600802316801433160FFF73AFDC6
:100EB00005463068204200D0B7E0FFF733FD401B05
:100EC0000228F6D971E13068800300D47AE70598EA
:100ED0004068002800D075E7049F66E13168490545
:100EE000059B03D5D968002900D1B9E07F2109020B
:100EF00072688A43596909021143716000280DD153
:100F00000720C002316881431869084330603068A7
:100F10008004400FAB49C140AB480160AB4800685A
:100F2000FFF722FD002800D150E7049F3DE1306E1D
:100F300005998969002900D181E0012108433066C3
:100F4000FFF7F0FC0546306E800700D550E7FFF74D
:100F5000E9FC401B03270228F5D926E10120039074
:100F60000107F06B0840029006D1F06B0843F06374
:100F7000F06B0840069006980191954C2068C005DA
:100F800010D403980702206838432060FFF7CAFC9A
:100F900005462068384205D1FFF7C4FC401B0228F3
:100FA000F7D975E005988468052C5BD0012C5DD0DD
:100FB000F06D03998843F065F06D0421884358E093
:100FC0000120810432680A4332600104306808431A
:100FD000306001204404FFF7A5FC05460398002873
:100FE0000FD03068204200D0ECE6FFF79BFC401B9E
:100FF0006428F6D9D9E0FFF795FC401B642800D996
:10100000D3E030682042F6D1DCE609028843306044
:10101000FFF788FC05463068204200D1D6E6FFF78E
:1010200081FC401B0228F6D9BFE07F2000027168D6
:10103000814305984069000208437060C6E60121BB
:1010400088433066FFF76EFC0546306E800700D49B
:10105000CEE6FFF767FC401B03270228F5D9A4E082
:10106000049FA2E0F06D04210143F165F06D039946
:101070000843F065574FFFF755FC0546002C0FD08D
:10108000F06D80070FD4FFF74DFC401BB842F7D935
:10109000002003270FE0FFF745FC401BB842F7D8BC
:1010A000F06D8007F7D40298002803D1F06B019906
:1010B0008843F0630120002877D00598C469002C8C
:1010C00072D0B06838210140102903D1012C18D109
:1010D000049F6AE001273906306804918843306034
:1010E000FFF720FC0546022C2CD103977C063068C4
:1010F000204232D0FFF716FC401B03270228F6D906
:1011000053E0F06803210140059B1A6A91424FD1D8
:10111000702101405A6A914250D17F210902014059
:101120009A6A120291424BD11F2149040140DA6AA6
:101130009142049F39D1072149070840196B884221
:1011400033D131E07C063068204229D0FFF7EAFB3A
:10115000401B03270228F6D927E0F0681F49014009
:10116000059F2037ADCF084310431902014329439F
:101170003943F160306804990843306003980007F0
:10118000F1680143F160FFF7CDFB0546306820426E
:101190000AD1FFF7C7FB401B03270228F6D904E05A
:1011A000F0680D490140F1600027F8B207B0F0BDCA
:1011B000049FFAE7049FF8E700100240049FF4E759
:1011C000049FF2E70024F400000000201400002037
:1011D0000070004088130000FCFFFEEF8C80C11FF0
:1011E00080B500F0CFFD80BDF0B581B03C22825CBF
:1011F000012A02D1022001B0F0BD02463C32012397
:1012000013703F242402CD68A5430F24A6028F68E3
:10121000B7432F434D68204E2E403E43F7252D0304
:101220000F68AF4337437B256D030E69AE433E43E2
:101230004D6935433D26B603B54324040F6BA743E0
:101240002F438C6926043E430468D64DAC4204D03B
:101250003046AC4207D0054619E018078643C869F6
:101260003043AC42F7D10D4D28400E6A4D6A8F6A6B
:10127000C96A00913F050A493940014311204006DF
:1012800086430E43580785433543009805430020A5
:101290001070656401B0F0BDFF87F0FFFFFF0FDC49
:1012A0000000F0DCF0B53C22825C012A01D1022072
:1012B000F0BD02463C3202235370012313700068D4
:1012C00046688468B74DA84201D0374604E00F272E
:1012D0003F05BE434F6837437026B7430E683E4311
:1012E0004660A84202D0284DA84204D18025AC43D4
:1012F000896821438160002010705370F0BDC046A2
:1013000010B5044644300029024608D0082903D00D
:10131000042903D1421C02E0821C00E0C21C1278A6
:10132000012A08D10222002907D0082907D0042960
:1013300007D1427006E0012010BD027002E0827009
:1013400000E0C2702068042200F0BFFD0122D0033B
:1013500021684B6C03434B649248814202D00A4897
:1013600081420CD18868094B03400020062B0AD02B
:101370001404A34207D00B6813430B6010BD086828
:1013800010430860002010BD000400400700010069
:10139000B0B500281FD0044605463C3568780028C3
:1013A00004D100202870204600F018F80220687050
:1013B00001CC214600F034FD01202873A870E870AC
:1013C00028716871A871E87128726872A872E87251
:1013D00068700020B0BD0120B0BD000083B000687F
:1013E0006E49884211D06E4988421AD06D498842B0
:1013F00015D10120C00211490A6802430A60096838
:1014000001400291029803B07047012080040B490B
:101410000A6802430A60096801400091009803B01D
:1014200070470120400405490A6802430A600968C0
:1014300001400191019803B07047C046401002403E
:10144000F0B581B004463C20205C012801D1022384
:1014500060E026463C360220707001273770206815
:1014600082682F4B134083600A6800254F2A0EDCE8
:101470001F2A25DD202A27D0302A25D0402A4CD10A
:10148000CA68496800F092FE206840213DE06F2A5A
:101490001CDD7B039A4224D03B039A422B4637D073
:1014A000702A3AD14A6800928A68CB681146009A3D
:1014B00000F018FD2068816877220A43826026E0E8
:1014C000002A01D0102A28D111461EE0502A16D039
:1014D000602A22D1CA68496800F079FE206860213C
:1014E00013E04A6800928A68CB681146009A00F0BF
:1014F000F9FCB80321688A6802438A6007E0CA6879
:10150000496800F053FE2068502100F0F7FC2B469C
:1015100035707770184601B0F0BD3B46F8E7C0461D
:101520008800CEFF80B586B000210591049103911B
:10153000029101910068AA4A90420FD0A94A9042B4
:1015400016D0AA4A904227D11748026808231A43A6
:101550000260006818400090042012E012480268FF
:1015600008231A430260006818400090022008E037
:101570000D48026808231A43026000681840009072
:10158000012001900098022005900491039102909F
:10159000064801A9FFF7F2F806B080BD00480140F7
:1015A00000440140002C014034100240000C005067
:1015B00070B505463C20285C012801D1022070BD91
:1015C0000C462E463C36012030700221CA41052AC5
:1015D0006FD8C0467A4412795200974402122434DC
:1015E00046552868214600F093FC28688169082246
:1015F0000A43826181690422914381612169183023
:1016000053E02868214600F0C1FC0121CA02286885
:10161000836913438361890282698A4382612169F4
:101620000902183041E02868214600F0EBFC2868E8
:10163000C16908220A43C261C16904229143C161A0
:1016400021691C3031E02868214600F01BFD012192
:10165000CA022868C3691343C3618902C2698A4305
:10166000C261216909021C301FE02868214600F090
:1016700039FD2868416D08220A434265416D042204
:101680009143416521690FE02868214600F058FD2B
:101690000121CA022868436D134343658902426DE4
:1016A0008A43426521690902543002680A43026094
:1016B00000200021317070BDB0B500281FD0044655
:1016C00005463C356878002804D100202870204663
:1016D00000F017F80220687001CC214600F0A0FB52
:1016E00001202873A870E87028716871A871E871EA
:1016F00028726872A872E87268700020B0BD01207C
:10170000B0BD7047B0B504463E300029024614D043
:101710000A1F0223DA41032A0ED8C0467A441279FE
:101720005200974401030507421C06E0821C04E0B6
:10173000C21C02E0021D00E0421D1278012A0FD1F6
:1017400000290FD00B1F0222D341032B0DD8C04616
:101750007B441B795B009F44010A0C0E42700BE036
:101760000120B0BD0222027006E0427104E08270E6
:1017700002E0C27000E00271206801252A4600F0F4
:1017800097FB21681548814206DC1748814213D037
:101790001648814206D01CE0EE48814202D0C4487F
:1017A000814216D1E8034A6C02434A640F488142E1
:1017B00002D00D4881420CD188680D4A02400020B9
:1017C000062A0AD02B049A4207D00A682A430A60E4
:1017D000B0BD0868284308600020B0BDFF43014049
:1017E000004801400044014000040040002C01403A
:1017F00007000100FEE700008168034A0A4001215A
:101800000907511881607047E8FFFF6F07208105C5
:101810002248006808407047416907200840704727
:1018200081680120084070478068C000C00F704781
:1018300080684007C00F7047024A0A40816A11431E
:1018400081627047FFFF0700C943034A0A43816A68
:10185000114081627047C0460000F8FF1F230B4013
:101860009100090F99400F229A40836A93430B43DA
:1018700083627047090243698B430A400249114061
:10188000194341617047C04600FFFF0707218905E2
:10189000024A13688B4303431360704708270140D3
:1018A00004230B409A400721994043698B4313431B
:1018B00043617047F0B581B0114803880646114F67
:1018C000B87901250222294600F0BCF903242046FC
:1018D000FEF744FF3388B879002631462A4600F0E7
:1018E000B1F92046FEF73AFF05480388B87931463A
:1018F000324600F0A7F92046FEF730FF01B0F0BDF8
:10190000040000200600002010B584B02C211848E7
:101910000024445420214454C4644462846201215C
:10192000C161847604830422124B890703604160FD
:101930008460C460046142610394029401943C2178
:101940004454046344638463FEF7CAFD002801D055
:10195000FEF7ACFC0394029407480190044801A9E7
:10196000FEF7ACFC002801D0FEF7A0FC04B010BDCF
:101970007800002000240140002000B4F0B587B0BA
:101980000024069405940494039402941F4801686B
:101990002022114301600168114001910199016801
:1019A00001273943016001683940019101990168BB
:1019B00008252943016001682940019101990168C6
:1019C0000222114301600068104001900198D5483F
:1019D00029462246FEF79EFF7F20C600D0483146AA
:1019E0002246FEF797FF059404940397029502ADF3
:1019F000CC482946FEF7C2FE05940494039702964C
:101A0000C7482946FEF7BAFE07B0F0BD34100240C1
:101A1000B0B594B0002413941294119410940F94C0
:101A20000E940D9468463421FEF7D6FBD3488021EE
:101A3000824A3F231E4D056043608460C26004619A
:101A400044618161FFF7A4FC002801D0FEF72EFC61
:101A5000CA48FFF731FE002801D0FEF727FC0F949B
:101A60000A200E9060200D901094119412941394FB
:101A7000C2480DA92246FFF79BFD002801D0FEF7C2
:101A800015FC049403940294019400940C9406941D
:101A9000012040030590B9486946FFF7A5FB0028DF
:101AA00001D0FEF703FCB548FFF73CFD14B0B0BD14
:101AB00000440140B0B594B00024139412941194E2
:101AC00010940F940E940D9468463421FEF784FB15
:101AD000AB488021594A3F23F34D05604360846041
:101AE000C260046144618161FFF752FC002801D0AB
:101AF000FEF7DCFBA248FFF7DFFD002801D0FEF770
:101B0000D5FB0F940A200E9060200D901094119434
:101B1000129413949A480DA92246FFF749FD002814
:101B200001D0FEF7C3FB0494039402940194009443
:101B30000C94069401204003059091486946FFF7F4
:101B400053FB002801D0FEF7B1FB8D48FFF7EAFCFC
:101B500014B0B0BD00480140B0B59CB000241B9447
:101B60001A94199418941794169415941494139421
:101B70001294119410940F940E9401A83421FEF73E
:101B80002BFB7D4880212D4A3F23C44D05604360D7
:101B90008460C260046144618161FFF7F9FB002841
:101BA00001D0FEF783FB012528031890724818A97D
:101BB000FFF746FC002801D0FEF778FB6E48FFF7E0
:101BC0007BFD002801D0FEF771FB17941694159445
:101BD000694815A9FFF766FB002801D0FEF766FBF0
:101BE0000F9460200E9010941194129413941494F6
:101BF00061480EA92246FFF7DBFC002801D0FEF762
:101C000055FB059404940394029401940D940C9450
:101C10000B9409940894079468060A906803069048
:101C2000554801A9FFF7E0FA002801D0FEF73EFB76
:101C30005148FFF777FC1CB0B0BDC046E703000079
:101C4000FEE77047F0B581B004467D20C000022A4F
:101C500003D1C01A484D2D6803E0474D2D68061F7B
:101C60006E6268630025012A184600D02846444E5B
:101C700036687063002A00D02B46404800684363F2
:101C80004801844307212046FEF714FB0246012742
:101C90007902234E3046FEF73DFE06212046FEF730
:101CA00009FB024639023046FEF734FE0521204684
:101CB000FEF700FB024680213046FEF72BFE042192
:101CC0002046FEF7F7FA024640213046FEF722FE94
:101CD00003212046FEF7EEFA024620213046FEF7A9
:101CE00019FE02212046FEF7E5FA02461021304691
:101CF000FEF710FE20463946FEF7DCFA02460827BA
:101D000030463946FEF706FE20462946FEF7D2FA4F
:101D1000024604483946FEF7FDFD01B0F0BDC0465D
:101D200000040050000C005070470000F0B581B076
:101D3000FEF78AFA7D20C0000F4F396848630F4EC6
:101D40003068002444630E4D286844630A20FEF77F
:101D500005FD38462146FFF7D5FC38462146FFF7FA
:101D6000CFFA30462146FFF7CDFC28462146FFF743
:101D7000C9FC01B0F0BDC046DC00002028010020F5
:101D800074010020B0B5401E010E01D00120B0BD8D
:101D9000054D68600024E043032100F02BFAAC609D
:101DA000072028602046B0BD10E000E080B5FEF7B7
:101DB000BDFD80BDF0B591B004AC34212046FEF7E6
:101DC0000BFA0026039602960196009601277802E8
:101DD000FEF706FE7807109078040F9008200E900A
:101DE0000D9602250C950B95402009900896380217
:101DF000079004952046FEF7D9FF00280CD10396E2
:101E0000029607200090019568462946FEF7D0FE0D
:101E1000002801D111B0F0BDFEF748FA704700006C
:101E200010B50468DD4A904202D01D4B984204D19F
:101E300070239C434B68234300E02346194CA04287
:101E400008DD90420CD0D64CA04209D0D54CA0421F
:101E500006D020E0124CA04202D0144CA0421AD16D
:101E600003242402A343CC681C4380239C434B6976
:101E7000234303608B68C3620B688362904205D082
:101E8000C74A904202D0C74A904201D10969016312
:101E90000121416110BD1C46E7E7C046002C01400E
:101EA00000040040FF2B014000480140002000409A
:101EB00010B51F230B4001219940046A8C43046232
:101EC0009A40016A1143016210BD10B51F230B40F7
:101ED00004219940046A8C4304629A40016A1143C8
:101EE000016210BDB0B5FF2424028568A5431143EB
:101EF0001A020A432A438260B0BD00008268034B85
:101F000013400B43072119438160704788FFCFFFBF
:101F1000F0B581B0026A01239A430262026A022389
:101F20009A438E68164344680A68009283699B4FFF
:101F3000B84205D09A4DA84202D09A4DA84208D185
:101F40000C25AE43CD68042295433543B84203D1F6
:101F500008E03546B84205D0914A904202D0914AF5
:101F6000904207D10322120294434E698A692643A4
:101F7000164300E026464660414A1340009A134348
:101F8000836149684163056201B0F0BDF0B581B07D
:101F9000026A10239A430262026A20239A438B68E2
:101FA0001E01164344680A68009282697B4FB8425A
:101FB00003D03546B84209D10EE0C025AE43CD6806
:101FC0002D0140239D433543B84205D0744B9842C0
:101FD00002D0744B984208D103239B029C434B6967
:101FE0008E699B002343B4001C4344603C4B1A4061
:101FF000009B1B021343836149688163056201B042
:10200000F0BDC046F0B581B001221302046A9C43C2
:1020100004625202036A93438A6816021E434468AC
:102020000A680092C3695D4FB84203D03546B84292
:102030000AD10FE00325AD02AE43CD682A020F4D51
:1020400015403543B84205D0554A904202D0554A12
:10205000904208D10322120394434A698E69120107
:102060002243340114434460054A1340009A134349
:10207000C3614968C163056201B0F0BD00FBFFFFA9
:102080008CFFFEFFF0B581B001221303046A9C436C
:102090000462036A44688D6800950E68C5693F4F05
:1020A000B84205D03E4FB84202D03E4FB84205D1AB
:1020B0009703BC434F69BF01274300E027464760B1
:1020C000074C254034022C43C46149680164510324
:1020D0008B43009909031943016201B0F0BDC0466A
:1020E000FF8CFFFEF0B581B0026A144C2240026200
:1020F000026A43688D6800950D68466D274FB842A7
:1021000005D0274FB84202D0264FB84204D1234011
:102110004F693F021F4300E01F464760703C264066
:102120002E43466549688165012149048A43009927
:1021300009041143016201B0F0BDC046FFFFFEFF7C
:10214000F0B581B001221305046A9C430462036A5E
:1021500044688D6800950E68456D104FB84205D0F3
:102160000F4FB84202D00F4FB84205D19704BC437D
:102170004F69BF02274300E0274647600A4C2540CD
:1021800034022C4344654968C16551058B4300996D
:1021900009051943016201B0F0BDC046002C0140A1
:1021A0000048014000440140FF8FFFFEB0B5036AC4
:1021B000046A0125AC4304628469F025AC43120132
:1021C000224382610A2293430B430362B0BD10B5E0
:1021D000036A1024A34303620F231B0384699C43F7
:1021E00012032243036A8261A02293430901194327
:1021F000016210BD002805D40322034693430C4A14
:102200009A1806E00F220240083A03239A43074B2C
:10221000D2188007C00E8901C9B28140FF238340D4
:1022200010689843084310607047C0461CED00E0FA
:1022300000E400E0FEF784FBFFF7BCFDFFF79EFB28
:10224000FFF78AFCFFF7E4FBFFF734FCFFF75CFBCA
:10225000FFF76CFDFFF72EFBFCE743088B421AD318
:10226000002203098B4279D3030A8B425ED3030B0E
:102270008B4242D3030C8B4227D30902FF2212BAAE
:10228000030C8B4202D31212090203D0030B8B42C0
:1022900033D31AE0D3E0411A8041401C7047034613
:1022A0000B4371D443088B42F5D3002203098B42C0
:1022B00054D3030A8B4239D3030B8B421DD3030C37
:1022C0008B4202D394466EE0090AC30B8B4201D3C2
:1022D000CB03C01A5241830B8B4201D38B03C01A2C
:1022E0005241430B8B4201D34B03C01A5241030BA3
:1022F0008B4201D30B03C01A5241C30A8B4201D354
:10230000CB02C01A5241830A8B4201D38B02C01AFE
:102310005241430A8B4201D34B02C01A5241030A75
:102320008B4201D30B02C01A5241CDD2C3098B425A
:1023300001D3CB01C01A524183098B4201D38B01D7
:10234000C01A524143098B4201D34B01C01A52417A
:1023500003098B4201D30B01C01A5241C3088B42BF
:1023600001D3CB00C01A524183088B4201D38B00AA
:10237000C01A524143088B4201D34B00C01A52414C
:10238000411A524110007047CA0F00D04942031051
:1023900000D34042534000229C4603098B422DD378
:1023A000030A8B4212D38901FC2212BA030A8B4220
:1023B0000CD3890192118B4208D3890192118B426F
:1023C00004D3890137D0921100E08909C3098B42F7
:1023D00001D3CB01C01A524183098B4201D38B0137
:1023E000C01A524143098B4201D34B01C01A5241DA
:1023F00003098B4201D30B01C01A5241C3088B421F
:1024000001D3CB00C01A524183088B4201D38B0009
:10241000C01A5241D9D243088B4201D34B00C01A93
:102420005241411A00D201465241104663465B10A8
:1024300000D34042704763465B1000D3404201B571
:102440000021004201D0C9430846C046C04602BD33
:10245000000000000000000000000000000000007C
:10246000000000000000000000000000000000006C
:102470000100000002000000030000000400000052
:10248000060000000700000008000000090000002E
:10249000B02400080000002018000000040100081B
:1024A000C824000818000020B00700002001000820
:1024B0000024F400900122EE34A4E8A121E620A03B
:0824C00001000000040000000F
:04000005080000C12E
:00000001FF
