:020000040800F2
:10000000F8060020650100084116000801140008E8
:1000100000000000000000000000000000000000E0
:100020000000000000000000000000009117000820
:10003000000000000000000043160008CD17000873
:100040007701000800000000770100087701000830
:1000500077010008770100087701000877010008A0
:100060000000000077010008770100087701000810
:100070007701000877010008770100080000000000
:100080007701000800000000000000007701000870
:1000900000000000770100087701000877010008E0
:1000A0007701000877010008770100087701000850
:1000B00077010008000000000000000000000000C0
:1000C00000F002F800F03EF80CA030C80838241800
:1000D0002D18671EA246AB4654465D46AC4201D180
:1000E00000F030F87E460F3EB6460FCC0126334274
:1000F00000D0FB1A3343A246AB461847D81900007C
:10010000F8190000103A02D378C878C1FAD852071B
:1001100001D330C830C101D504680C6070470000BD
:100120000023002400250026103A01D378C1FBD813
:10013000520700D330C100D50B6070471FB51FBDFB
:1001400010B510BD00F04DF81146FFF7F7FF01F0B4
:1001500097FB00F065F803B4FFF7F2FF03BC00F073
:100160006BF800000748804707480047FEE7FEE7B6
:10017000FEE7FEE7FEE7FEE704480549054A064BB1
:10018000704700003D180008C1000008F80000207A
:10019000F8060020F8020020F802002001E004C068
:1001A000091F0429FBD28B0701D50280801CC907D7
:1001B00000D00270704700290BD0C30702D0027034
:1001C000401C491E022904D3830702D50280801CEB
:1001D000891EE3E70022EEE70022DFE77047704761
:1001E0007047754600F024F8AE4605006946534650
:1001F000C008C000854618B020B5FFF7BDFF60BC41
:10020000B64600260027C0C5C0C5C0C5C0C5C0C50C
:10021000C0C5C0C5C0C5403D490849008D467047AE
:1002200010B50446C046C0462046FFF794FF10BDF7
:10023000004870471000002001491820ABBEFEE7BF
:10024000260002007047EFF3108072B6FEE7000050
:1002500016480068C1B2AA2903D10846CC2904D1A6
:1002600002E0BB20CC2900D1084670470F48016846
:10027000014808407047C04600604F0710B5114B59
:10028000012800D01B1D18681F2404400C6018684A
:10029000C002C00E106010BD1143044A13688343AE
:1002A000FF2083430B4313607047C0462020024069
:1002B00012040A430349012801D10A6070474A60C9
:1002C0007047C0462C20024070B5044600F036FC52
:1002D0000619114D2868C00305D500F02FFCB04267
:1002E000F8D3032070BD28680C494A1C2A600840D6
:1002F00003D00B494860012070BD00F01FFC0419B9
:100300002868400305D500F019FCA042F8D303206B
:1003100070BD002070BDC04610200240FA8300006E
:10032000D800002080B588B001A800F091FA0798A5
:10033000C10110D5012109068843079000F016FB82
:1003400000F000FB01A800F099FA00F0E7FA00F0D5
:10035000EDFA00F0D9FA08B080BDC840012108408C
:1003600070470000F0B587B00C46054600210691A5
:100370005420285C012801D102260FE005912F4668
:10038000543701263E70286801F058F8002808D03C
:10039000A86D20210143A96505993970304607B041
:1003A000F0BD2869616802291DD104210843724902
:1003B000884203D12168286801F04CF820680026A3
:1003C0000028E9D501F028F821686D4A914200D152
:1003D00090E06C4A914200D18FE0684A9142DBD1B3
:1003E0000121C9058BE004263043634A90422ED197
:1003F0002168286801F026F8A2682168286801F0C1
:100400003FF8206800260028C6D5012501F004F831
:1004100021685A4A91425FD1EA05034613405BD1F5
:10042000104301F039F8DC480068DC4901F037FA84
:100430000C2141430C31069106980028ACD0059957
:100440000698401E069006980028F9D1A5E71F20BF
:1004500008400F23029383402A6E9A430492226835
:100460005303039243D00193D307059B5DD1039AB5
:10047000930755D4530755D4130755D4D3063346A1
:1004800053D4039A93065ED453065ED413065ED407
:10049000039AD3055DD4039A93055CD4039A53055C
:1004A0005BD4039A13055AD4039AD30459D4039AFC
:1004B000930458D4039A530457D4039A1304029B09
:1004C00033D4039AD30352D4039A930351D4019A99
:1004D000D6171223334028E0294A914213D12A0625
:1004E000034613400FD1104300F0D6FF54E75300EA
:1004F000DB0E1AE00121090601E00121890588438C
:1005000000F0CAFF48E71F4A914200D044E7A9051E
:1005100002460A4000D03FE7084300F0BDFF3BE73A
:10052000012302E0022300E00323834004980343F5
:100530002B668808EA69824200D85DE72868039A3A
:1005400000F092FF58E70523EFE70623EDE70723C6
:10055000EBE70823E9E70923E7E70A23E5E70B23AD
:10056000E3E70C23E1E70D23DFE70E23DDE71023AC
:10057000DBE71123D9E7C04604000080001000B07B
:10058000004000B8002000B4F0B589B00024089401
:1005900000282BD00546806D002807D12E46543602
:1005A000284600F005F900203070E865286800F062
:1005B00041FF00281CD0286800F03CFF002807D12C
:1005C000A86D10210143A965E86D01242043E86569
:1005D0002F465837286800F031FFA96D10221140CE
:1005E0000143A86D15D01043012479E0012478E07F
:1005F000286800F007FF68480068684901F04FF973
:100600004000801C089008980028D4D00898401E0C
:10061000F8E706920F210591C9430791F339084085
:10062000801CA865286800F001FF002816D06A6BBE
:1006300028680021059100F039FFAA6B28685B4902
:1006400000F034FF286901267105884222D0002875
:100650002DD12868816A079A114326E02A46203264
:10066000286B411E88410303A868297E8903014342
:10067000687EC6030E43A87E029040033043E968BB
:10068000014319430126F0072B69002B03902BDA55
:1006900083432AE02868816AE96989001C311C22A9
:1006A0000A40079B9340296E19432830016028684F
:1006B00000F0B8FE696B884207D10598E865A96D1E
:1006C00001200843022188430AE0A86D06990843E7
:1006D00002218843A865E86D30435C352F463446D7
:1006E0003860204609B0F0BD73051943107B430004
:1006F0000B43107801280CD10298002807D0A86D70
:1007000020210143A965E86D3043E86501E030042C
:100710000343686A0028049605D007218901084030
:100720001843AB6A03432968C8681D4E06401E4340
:10073000CE60032080076E68334602900340E86C69
:10074000127F0343012A0CD1286C6A6C0092AA6CB8
:1007500001921843009A1043019A1043049A1043DF
:10076000034608690F4A02401A430A610398864209
:1007700000D15CE70298864200D158E704988007D0
:10078000864200D153E705988004064006490A686E
:100790008243901908604AE700000020400D0300E2
:1007A0000102FEFF02FCFF1F0827014004FFFF07B4
:1007B000B0B58CB000240B940A9409940894079463
:1007C00006940594049403940294019400681649D5
:1007D000884201D00CB0B0BD05940125A80301905A
:1007E00001A800F02FFA002801D0FFF72CFD280502
:1007F0000E49CA680243CA60CA6802400092009863
:1008000008680222104308600868104000900994AC
:1008100003200890042007900098C24807A900F020
:10082000B9F80CB0B0BDC0460024014034100240FD
:10083000B0B5044600F082F90546601C02D0E048DD
:100840000078041900F07AF9401BA042FAD3B0BD39
:1008500010B5044607202060606821460831224612
:100860000C32FFF70BFDFFF7F3FC2061FFF7FEFCF6
:1008700001496161A06110BD00604F07F0B581B012
:100880000446204D2878012802D1022001B0F0BD95
:1008900000266E6001272F702078C00703D0221D2C
:1008A00007CAFFF705FD206806210140062901D18E
:1008B000226906E0810707D440070BD5FFF7C8FC83
:1008C00002466069A16903E0FFF7D0FC2269014696
:1008D000FFF7E2FC7D20C4002046FFF7F5FC00286E
:1008E0000CD17F040096164E3068384330602046A5
:1008F000FFF7EAFC3168B9433160009E2E7001B009
:10090000F0BDC046D80000200120C0070C490A688D
:1009100002430A600868C043C00F70470120C10647
:10092000074A13680B4313607047C04601208107D4
:10093000034A13680B4313601168890F884370479B
:100940001420024006488168490001D40120704704
:10095000044901600449016080684000C00F70478D
:100960000C2002403B2A19087F6E5D4C0648C16886
:10097000002901D400207047044901600449016046
:10098000C068C00F7047C046082002402301674579
:10099000AB89EFCDF0B588B00B460968002900D1CE
:1009A000B7E002465C48824201D0052000E0032007
:1009B0000090012400200546069007460194079206
:1009C0000FE03843039F5649086019680846E04025
:1009D000069E361D0696AD1C0837641C002800D103
:1009E00097E0661E01980596B04001400291ECD058
:1009F000039719465B6803261F46049637407E1E00
:100A0000012E13D8049EAE40079A9268B243CE6876
:100A1000AE401643079A9660DA06D20F059B9A40BD
:100A2000079B5B6883431343079A5360032F0B466E
:100A3000049E1ED03046A840079AD2688243986828
:100A4000A8401043079AD060022F12D11C20069AAA
:100A500010400F268640059AD2089200079B9A18EC
:100A6000136AB3430E6986401E430B461662049E0A
:100A7000079A3046A8401168814358688203304085
:100A8000A840084307990860900F079A039F9CD0DD
:100A9000182139400F208840059FB7431F4EF61993
:100AA000376E874360360520000782420AD01D4812
:100AB000824205D01C488242009804D1022002E004
:100AC000012000E00020884038433060134800686F
:100AD0005E68F10202D5029F384301E0029FB843ED
:100AE0000E4908604868B10201D5384300E0B843B8
:100AF0000A4948600A484068B10301D5384300E01C
:100B0000B843074948600868F10300D559E7B8437E
:100B100058E708B0F0BDC046000C00500018024075
:100B2000801802400004005000080050002A02D043
:100B3000182281507047282281507047054800686C
:100B40007047C0461E48007802490A6810180860BD
:100B50007047C046F4000020B0B501242002F249DD
:100B60000A6802430A600025284600F009F80028B8
:100B700001D02046B0BD00F025F82C462046B0BD7F
:100B8000B0B505460E4801780124002916D07D2015
:100B9000C00000F084FE0146E648006800F07FFED9
:100BA00000F02AFC032D09D8002807D10024E043D7
:100BB0002946224600F01CF8DF4805602046B0BDFB
:100BC0000600002082B009484168012211434160BB
:100BD0004168114001910199110702680A430260BE
:100BE000006808400090009802B070473C10024036
:100BF00080B500F025FE80BDF0B581B00325690207
:100C00006E4E32688A430243326001214A02002458
:100C1000904212D1C7480268706940050DD58F0215
:100C200006205043064900F03AFE801C401E03D0C7
:100C300071693942FAD100E02C46204601B0F0BD7E
:100C400040420F00F0B587B00646807880075A4FC3
:100C500001D400253EE0059601221107203F3868A7
:100C60000840049006D13868084338603868084066
:100C70000690069802970391019216024F4C206845
:100C800030432060FFF75AFF05462768374006D1FA
:100C9000FFF754FF401B0328F7D3032500E000258E
:100CA000059E002F01D1444F0CE003242102424F46
:100CB0003868084055D07269904256D1C00761D15A
:100CC000002D70D00498002804D1029A106803996E
:100CD000884310603068C10707D0394608390A6870
:100CE00003239A43736813430B60810608D50321DD
:100CF00009033A46083A13688B43B16819431160F7
:100D00000121420417D53A46083A13682D4C234076
:100D10000C4629463546366933431360294A521C2E
:100D200096422E460D46214605D10A043B46503BCD
:100D30001C6814431C60000510D58803032292032D
:100D40003B46083B1C689443F26814431C60824293
:100D500004D10804503F396801433960284607B080
:100D6000F0BD0020C007ABD00CE03868019A120437
:100D70003B6813433B603B6893433B608843386068
:100D8000C0079DD00194FFF7D9FE06460C4C386889
:100D9000800705D4FFF7D2FE801BA042F7D3019D48
:100DA000059E002D8ED103200002396881437069B1
:100DB00008433860002585E75C1002400070004061
:100DC00089130000FFFFFF3FF0B583B00D460121FE
:100DD000002800D1A5E00191029053480068072443
:100DE0002040A84214D250490868A0432843086014
:100DF0004E4EFFF7A3FE07464B4800682040A8422E
:100E000006D0FFF79BFEC01BB042F5D9032188E056
:100E1000029B18688107684E0CD5410703D5210352
:100E200032680A4332600F21090232688A439968A6
:100E300011433160C00719D13B4800682040A842E7
:100E400029D939490868A04328430860374FFFF77C
:100E500075FE0646344800682040A8421BD0FFF7C4
:100E60006DFE801BB842F5D903215AE0586803286B
:100E70002FD8810001A251584F4A8F468D0E00088D
:100E8000D90E0008E30E0008ED0E000811460839DF
:100E9000096849052CE0029A10784007464D05D5AF
:100EA000200329688143D0680843286000F046F891
:100EB000296889093C220A401D4989581F220A4095
:100EC000D0401C4908601C480068FFF759FE0146E5
:100ED00027E0394A516D0AE011460839096889034B
:100EE00006E0114608390968890101E0916D89071A
:100EF000019916D51168A143014311600B4FFFF70B
:100F00001DFE06462C4800683821014002984068C2
:100F1000C000814290D0FFF711FE801BB842F1D98A
:100F20000321084603B0F0BD0020024088130000F2
:100F3000941A0008000000200800002010B51E4C84
:100F400020688006400F06D0226838210A401B48DE
:100F5000082A07D110BD083C20688004410F1848BA
:100F6000C84010BD22680A40102A15D161680322CA
:100F70000A40032A00D0124861684906490F491CFB
:100F800000F08DFC61684904490E48436168490FCF
:100F9000491C00F084FC10BD20680840202802D1C4
:100FA0000120C00310BD20680840182801D000208F
:100FB00010BD7D20000210BD0810024000127A0012
:100FC0000024F400F0B587B00127002800D1F8E133
:100FD000049705900078C007FD4E2CD10598007845
:100FE00080074CD40598007800070DD5B0683821EB
:100FF0000140182900D0A6E0306E800704D505987E
:101000008069002800D1E1E105980078400700D40C
:101010005FE1B06838210140202900D0AAE0F06DDE
:10102000800700D452E105988068002800D04DE187
:10103000002001274BE1B068F16803273A468A4354
:101040003821014010204840821850425041082960
:1010500045D0002843D1059842680520000482420B
:10106000039200D1B8E0012001048A4200D1B9E026
:1010700032688A433260810430688843B4E0B168E2
:101080003820084010214140F26803273A400223EB
:101090005340CA185142514100282BD0002929D170
:1010A000306801218C02059BDA68002A00D1B8E083
:1010B0000722D20290431A69024332600802316863
:1010C00001433160FFF73AFD05463068204200D009
:1010D000B7E0FFF733FD401B0228F6D971E1306815
:1010E000800300D47AE705984068002800D075E7AF
:1010F000049F66E131684905059B03D5D96800293D
:1011000000D1B9E07F21090272688A435969090256
:101110001143716000280DD10720C002316881435E
:1011200018690843306030688004400FAB49C14003
:10113000AB480160AB480068FFF722FD002800D1F2
:1011400050E7049F3DE1306E05998969002900D17F
:1011500081E0012108433066FFF7F0FC0546306E60
:10116000800700D550E7FFF7E9FC401B0327022862
:10117000F5D926E1012003900107F06B08400290A9
:1011800006D1F06B0843F063F06B084006900698B8
:101190000191954C2068C00510D40398070220687F
:1011A00038432060FFF7CAFC05462068384205D165
:1011B000FFF7C4FC401B0228F7D975E00598846846
:1011C000052C5BD0012C5DD0F06D03998843F06550
:1011D000F06D0421884358E00120810432680A43FD
:1011E0003260010430680843306001204404FFF796
:1011F000A5FC0546039800280FD03068204200D097
:10120000ECE6FFF79BFC401B6428F6D9D9E0FFF71A
:1012100095FC401B642800D9D3E030682042F6D109
:10122000DCE6090288433060FFF788FC0546306839
:10123000204200D1D6E6FFF781FC401B0228F6D9F8
:10124000BFE07F2000027168814305984069000279
:1012500008437060C6E6012188433066FFF76EFCE4
:101260000546306E800700D4CEE6FFF767FC401BD2
:1012700003270228F5D9A4E0049FA2E0F06D042121
:101280000143F165F06D03990843F065574FFFF78F
:1012900055FC0546002C0FD0F06D80070FD4FFF7EA
:1012A0004DFC401BB842F7D9002003270FE0FFF7A1
:1012B00045FC401BB842F7D8F06D8007F7D4029880
:1012C000002803D1F06B01998843F06301200028C6
:1012D00077D00598C469002C72D0B06838210140DD
:1012E000102903D1012C18D1049F6AE00127390687
:1012F0003068049188433060FFF720FC0546022CDB
:101300002CD103977C063068204232D0FFF716FCC0
:10131000401B03270228F6D953E0F068032101405F
:10132000059B1A6A91424FD1702101405A6A91423D
:1013300050D17F21090201409A6A120291424BD199
:101340001F2149040140DA6A9142049F39D10721E3
:1013500049070840196B884233D131E07C06306878
:10136000204229D0FFF7EAFB401B03270228F6D9C9
:1013700027E0F0681F490140059F2037ADCF0843A3
:1013800010431902014329433943F160306804993D
:101390000843306003980007F1680143F160FFF7EC
:1013A000CDFB0546306820420AD1FFF7C7FB401B42
:1013B00003270228F6D904E0F0680D490140F160E6
:1013C0000027F8B207B0F0BD049FFAE7049FF8E7E2
:1013D00000100240049FF4E7049FF2E70024F400A9
:1013E000000000200800002000700040881300006A
:1013F000FCFFFEEF8C80C11F80B500F0D3F980BDEB
:10140000FEE700008168034A0A40012109075118DC
:1014100081607047E8FFFF6F072081052248006860
:1014200008407047416907200840704781680120E3
:10143000084070478068C000C00F70478068400750
:10144000C00F7047024A0A40816A114381627047A7
:10145000FFFF0700C943034A0A43816A11408162C2
:101460007047C0460000F8FF1F230B409100090F92
:1014700099400F229A40836A93430B4383627047DB
:10148000090243698B430A400249114019434161F3
:101490007047C04600FFFF0707218905024A13680D
:1014A0008B430343136070470827014004230B401C
:1014B0009A400721994043698B4313434361704726
:1014C00070B50B4D00242C600A4E30884000401C43
:1014D000308080B200F0B6F87D208000FFF7A8F9D8
:1014E0002868411C29600F28EFDB348070BDC0469E
:1014F000D40000200400002010B584B02C2118482E
:101500000024445420214454C46444628462012170
:10151000C161847604830422124B89070360416011
:101520008460C460046142610394029401943C218C
:101530004454046344638463FFF726F8002801D011
:10154000FEF781FE0394029407480190044801A924
:10155000FEF708FF002801D0FEF775FE04B010BDAD
:10156000700000200024014000040028F0B589B07C
:101570000024089407940694059404942D48016867
:10158000042211430160016811400391039901682D
:101590002022114301600168114003910399016801
:1015A00001252943016001682940039103990168DD
:1015B00002221143016000681040039003987348B1
:1015C0001D492246FFF7B2FA052000070290FF21CD
:1015D00001912246FFF7AAFA072046036A483146DE
:1015E0002246FFF7A3FA0794069405953046C030CB
:1015F000049004AF65483946FFF7CCF90794069488
:1016000005950198049002983946FFF7C3F90694AE
:1016100005940A4804905C483946FFF7BBF90794E3
:1016200006940595049658483946FFF7B3F909B072
:10163000F0BDC04634100240C0E0000003040000CA
:10164000FEE77047F0B583B004460021FEF785FE43
:101650000246052002900607012530462946FFF77D
:1016600065FA20462946FEF778FE024602273046F4
:101670003946FFF75BFA20463946FEF76EFE024612
:10168000042730463946FFF751FA03212046FEF77A
:1016900064FE0246082100913046FFF747FA2046D3
:1016A0003946FEF75AFE024610213046FFF73EFA51
:1016B00020460299FEF751FE024620213046FFF7F0
:1016C00035FA06212046FEF748FE024640210291E7
:1016D0003046FFF72BFA07212046FEF73EFE024672
:1016E000802101913046FFF721FA20460099FEF74C
:1016F00034FE024669030091234F3846FFF716FA7D
:1017000009212046FEF729FE0246AE03384631463F
:10171000FFF70CFA0A212046FEF71FFE0246ED03F2
:1017200038462946FFF702FA0B212046FEF715FE40
:101730000246164F38460299FFF7F8F90C21204669
:10174000FEF70BFE024638460199FFF7EFF90D212F
:101750002046FEF702FE024638460099FFF7E6F9FA
:101760000E212046FEF7F9FD024638463146FFF7C6
:10177000DDF90F212046FEF7F0FD024638462946E6
:10178000FFF7D4F903B0F0BD00040050000800508A
:101790007047000080B50248FFF754FF80BDC04687
:1017A000FFFF0000B0B5401E010E01D00120B0BD0A
:1017B000054D68600024E043032100F041F8AC606F
:1017C000072028602046B0BD10E000E080B5FFF79C
:1017D000B9F980BDF0B591B004AC34212046FEF7D4
:1017E000FBFC0026039602960196009601277802DC
:1017F000FFF702FA7807109078040F9008200E90F7
:101800000D9602250C950B954020099008963802FC
:10181000079004952046FFF7D5FB00280CD10396CE
:10182000029607200090019568462946FFF7CCFAFA
:10183000002801D111B0F0BDFEF705FD7047000092
:10184000002805D40322034693430C4A9A1806E065
:101850000F220240083A03239A43074BD21880070D
:10186000C00E8901C9B28140FF23834010689843AC
:10187000084310607047C0461CED00E000E400E043
:10188000FFF76AF9FFF7A6FFFEF74CFDFFF76EFEC4
:10189000FFF732FEFFF77EFFFFF712FEFCE743087B
:1018A0008B421AD3002203098B4279D3030A8B425D
:1018B0005ED3030B8B4242D3030C8B4227D3090226
:1018C000FF2212BA030C8B4202D31212090203D078
:1018D000030B8B4233D31AE0D3E0411A8041401C02
:1018E000704703460B4371D443088B42F5D3002263
:1018F00003098B4254D3030A8B4239D3030B8B4227
:101900001DD3030C8B4202D394466EE0090AC30B2D
:101910008B4201D3CB03C01A5241830B8B4201D3BC
:101920008B03C01A5241430B8B4201D34B03C01AA5
:101930005241030B8B4201D30B03C01A5241C30A1D
:101940008B4201D3CB02C01A5241830A8B4201D38E
:101950008B02C01A5241430A8B4201D34B02C01A78
:101960005241030A8B4201D30B02C01A5241CDD21D
:10197000C3098B4201D3CB01C01A524183098B4268
:1019800001D38B01C01A524143098B4201D34B0151
:10199000C01A524103098B4201D30B01C01A5241B4
:1019A000C3088B4201D3CB00C01A524183088B423B
:1019B00001D38B00C01A524143088B4201D34B0024
:1019C000C01A5241411A524110007047CA0F00D04C
:1019D0004942031000D34042534000229C46030971
:1019E0008B422DD3030A8B4212D38901FC2212BAF7
:1019F000030A8B420CD3890192118B4208D38901CF
:101A000092118B4204D3890137D0921100E08909E9
:101A1000C3098B4201D3CB01C01A524183098B42C7
:101A200001D38B01C01A524143098B4201D34B01B0
:101A3000C01A524103098B4201D30B01C01A524113
:101A4000C3088B4201D3CB00C01A524183088B429A
:101A500001D38B00C01A5241D9D243088B4201D323
:101A60004B00C01A5241411A00D201465241104661
:101A700063465B1000D34042704763465B1000D35F
:101A8000404201B50021004201D0C9430846C0468A
:101A9000C04602BD00000000000000000000000081
:101AA0000000000000000000000000000000000036
:101AB0000000000001000000020000000300000020
:101AC00004000000060000000700000008000000FD
:101AD00009000000F81A00080000002010000000B3
:101AE00004010008081B000810000020E8060000A0
:101AF00020010008000000000024F40001000100A3
:081B00000400000000000000D9
:04000005080000C12E
:00000001FF
