:020000040800F2
:100000009006002065010008650F0008B10D00088A
:1000100000000000000000000000000000000000E0
:10002000000000000000000000000000690F000850
:100030000000000000000000670F00089D0F00088E
:100040007701000800000000770100087701000830
:1000500077010008770100087701000877010008A0
:100060000000000077010008770100087701000810
:100070007701000877010008770100080000000000
:100080007701000800000000000000007701000870
:1000900000000000770100087701000877010008E0
:1000A0007701000877010008770100087701000850
:1000B00077010008000000000000000000000000C0
:1000C00000F002F800F03EF80CA030C80838241800
:1000D0002D18671EA246AB4654465D46AC4201D180
:1000E00000F030F87E460F3EB6460FCC0126334274
:1000F00000D0FB1A3343A246AB461847A4110000B8
:10010000C4110000103A02D378C878C1FAD8520757
:1001100001D330C830C101D504680C6070470000BD
:100120000023002400250026103A01D378C1FBD813
:10013000520700D330C100D50B6070471FB51FBDFB
:1001400010B510BD00F04DF81146FFF7F7FF00F0B5
:100150007FFF00F065F803B4FFF7F2FF03BC00F087
:100160006BF800000748804707480047FEE7FEE7B6
:10017000FEE7FEE7FEE7FEE704480549054A064BB1
:10018000704700000D100008C1000008900000201A
:1001900090060020900200209002002001E004C0A0
:1001A000091F0429FBD28B0701D50280801CC907D7
:1001B00000D00270704700290BD0C30702D0027034
:1001C000401C491E022904D3830702D50280801CEB
:1001D000891EE3E70022EEE70022DFE77047704761
:1001E0007047754600F024F8AE4605006946534650
:1001F000C008C000854618B020B5FFF7BDFF60BC41
:10020000B64600260027C0C5C0C5C0C5C0C5C0C50C
:10021000C0C5C0C5C0C5403D490849008D467047AE
:1002200010B50446C046C0462046FFF794FF10BDF7
:10023000004870471000002001491820ABBEFEE7BF
:10024000260002007047EFF3108072B6FEE7000050
:1002500015480068C1B2AA2903D10846CC2904D1A7
:1002600002E0BB20CC2900D1084670470E48016847
:100270004A4808407047C04610B5114B012800D0CD
:100280001B1D18681F2404400C601868C002C00EB3
:10029000106010BD1143044A13688343FF20834359
:1002A0000B4313607047C0462020024012040A43EB
:1002B0000349012801D10A6070474A607047C0466F
:1002C0002C20024070B5044600F0CCF90619114DFF
:1002D0002868C00305D500F0C5F9B042F8D3032063
:1002E00070BD28680C494A1C2A60084003D04F4959
:1002F0004860012070BD00F0B5F90419286840037A
:1003000005D500F0AFF9A042F8D3032070BD00205E
:1003100070BDC04610200240FA83000080B588B04E
:1003200001A800F027F80798C10110D5012109069E
:100330008843079000F0AEF800F098F801A800F0AC
:100340002FF800F07FF800F085F800F071F808B0A1
:1003500080BD0000B0B5044600F084F90546601C7D
:1003600002D0E1480078041900F07CF9401BA0425B
:10037000FAD3B0BD10B5044607202060606821465E
:10038000083122460C32FFF777FFFFF761FF20614B
:10039000FFF76CFFA0610148606110BD00604F076E
:1003A000F0B581B00446214D2878012802D1022001
:1003B00001B0F0BD00266E6001272F702078C007C5
:1003C00004D0E268A1686068FFF770FF206806212A
:1003D0000140062903D12269A16960690DE0810706
:1003E00007D440070BD5FFF733FF02466069A169C8
:1003F00003E0FFF73BFF22690146FFF74BFF7D203B
:10040000C4002046FFF75EFF00280CD17F04009651
:10041000154E3068384330602046FFF753FF31688F
:10042000B9433160009E2E7001B0F0BD7000002015
:100430000120C0070C490A6802430A600868C043EB
:10044000C00F70470120C106074A13680B431360B1
:100450007047C04601208107034A13680B431360AD
:100460001168890F8843704714200240064881684C
:10047000490001D40120704704490160044901602A
:1004800080684000C00F70470C2002403B2A1908CA
:100490007F6E5D4C0648C168002901D4002070477A
:1004A0000449016004490160C068C00F7047C0463C
:1004B0000820024023016745AB89EFCDF0B588B035
:1004C0000B460968002900D1B7E002465C48824229
:1004D00001D0052000E00320009001240020054603
:1004E00006900746019407920FE03843039F564950
:1004F000086019680846E040069E361D0696AD1C49
:100500000837641C002800D197E0661E0198059604
:10051000B04001400291ECD0039719465B68032676
:100520001F46049637407E1E012E13D8049EAE400F
:10053000079A9268B243CE68AE401643079A966017
:10054000DA06D20F059B9A40079B5B6883431343EF
:10055000079A5360032F0B46049E1ED03046A840D6
:10056000079AD26882439868A8401043079AD060DF
:10057000022F12D11C20069A10400F268640059AA1
:10058000D2089200079B9A18136AB3430E698640FB
:100590001E430B461662049E079A3046A840116817
:1005A0008143586882033040A84008430799086097
:1005B000900F079A039F9CD0182139400F20884044
:1005C000059FB7431F4EF619376E874360360520E7
:1005D000000782420AD01D48824205D01C48824250
:1005E000009804D1022002E0012000E000208840B1
:1005F00038433060134800685E68F10202D5029FFC
:10060000384301E0029FB8430E4908604868B102D0
:1006100001D5384300E0B8430A4948600A484068B9
:10062000B10301D5384300E0B84307494860086882
:10063000F10300D559E7B84358E708B0F0BDC0460C
:10064000000C0050001802408018024000040050C6
:1006500000080050002A02D018228150704728223A
:1006600081507047054800687047C0461E480078B2
:1006700002490A68101808607047C0468C000020C4
:10068000B0B50124200292490A6802430A6000259D
:10069000284600F009F8002801D02046B0BD00F03F
:1006A00025F82C462046B0BDB0B505460E48017869
:1006B0000124002916D07D20C00000F0D6FC0146A0
:1006C0008648006800F0D1FC00F06EFB032D09D8CD
:1006D000002807D10024E0432946224600F01CF8F8
:1006E0007F4805602046B0BD0400002082B0094864
:1006F0004168012211434160416811400191019913
:10070000110702680A4302600068084000900098E0
:1007100002B070473C10024080B500F079FC80BD0B
:10072000F0B581B0032569020F4E32688A43024357
:10073000326001214A020024904212D167480268C7
:10074000706940050DD58F0206205043074900F01F
:100750008CFC801C401E03D071693942FAD100E044
:100760002C46204601B0F0BD0070004040420F0012
:10077000F0B583B00D460121002800D1A5E001911C
:1007800002905348006807242040A84214D25049E0
:100790000868A043284308604E4EFFF763FF0746F2
:1007A0004B4800682040A84206D0FFF75BFFC01B03
:1007B000B042F5D9032188E0029B18688107684E92
:1007C0000CD5410703D5210332680A4332600F215B
:1007D000090232688A43996811433160C00719D110
:1007E0003B4800682040A84229D939490868A043FD
:1007F00028430860374FFFF735FF06463448006846
:100800002040A8421BD0FFF72DFF801BB842F5D92E
:1008100003215AE0586803282FD8810001A25158BB
:100820004F4A8F4635080008810800088B080008E9
:100830009508000811460839096849052CE0029A14
:1008400010784007464D05D5200329688143D068BC
:100850000843286000F046F8296889093C220A40CC
:100860001D4989581F220A40D0401C4908601C4875
:100870000068FFF719FF014627E0394A516D0AE089
:10088000114608390968890306E0114608390968E4
:10089000890101E0916D8907019916D51168A1437D
:1008A000014311600B4FFFF7DDFE06462C48006840
:1008B0003821014002984068C000814290D0FFF783
:1008C000D1FE801BB842F1D90321084603B0F0BD28
:1008D0000020024088130000601200080000002081
:1008E0000800002010B51E4C20688006400F06D07E
:1008F000226838210A401B48082A07D110BD083C4D
:1009000020688004410F1848C84010BD22680A4082
:10091000102A15D1616803220A40032A00D0124828
:1009200061684906490F491C00F09FFB6168490452
:10093000490E48436168490F491C00F096FB10BD01
:1009400020680840202802D10120C00310BD206883
:100950000840182801D0002010BD7D20000210BDE5
:100960000810024000127A000024F400F0B587B0AD
:100970000127002800D1FBE1049705900078C0070B
:10098000FE4E2CD10598007880074CD4059800784D
:1009900000070DD5B06838210140182900D0A6E025
:1009A000306E800704D505988069002800D1E7E102
:1009B00005980078400700D45FE1B0683821014015
:1009C000202900D0AAE0F06D800700D452E10598FC
:1009D0008068002800D04DE1002001274BE1B0687D
:1009E000F16803273A468A433821014010204840E5
:1009F000821850425041082945D0002843D105981B
:100A00004268052000048242039200D1B8E0012030
:100A100001048A4200D1B9E032688A43326081041D
:100A200030688843B4E0B168382008401021414064
:100A3000F26803273A4002235340CA1851425141F9
:100A400000282BD0002929D1306801218C02059B78
:100A5000DA68002A00D1B8E00722D20290431A696E
:100A6000024332600802316801433160FFF7FAFD4A
:100A700005463068204200D0B7E0FFF7F3FD401B89
:100A80000228F6D974E13068800300D47AE705982B
:100A90004068002800D075E7049F69E13168490586
:100AA000059B03D5D968002900D1B9E07F2109024F
:100AB00072688A43596909021143716000280DD197
:100AC0000720C002316881431869084330603068EC
:100AD0008004400FAD49C140AD480160AD48006899
:100AE000FFF7E2FD002800D150E7049F40E1306E9F
:100AF00005998969002900D181E001210843306608
:100B0000FFF7B0FD0546306E800700D550E7FFF7D0
:100B1000A9FD401B03270228F5D929E101200390F4
:100B20000107F06B0840029006D1F06B0843F063B8
:100B3000F06B0840069006980191974C2068C0051C
:100B400010D403980702206838432060FFF78AFD1D
:100B500005462068384205D1FFF784FD401B022876
:100B6000F7D975E005988468052C5BD0012C5DD021
:100B7000F06D03998843F065F06D0421884358E0D7
:100B80000120810432680A4332600104306808435E
:100B9000306001204404FFF765FD054603980028F6
:100BA0000FD03068204200D0ECE6FFF75BFD401B21
:100BB0006428F6D9DCE0FFF755FD401B642800D916
:100BC000D6E030682042F6D1DCE609028843306086
:100BD000FFF748FD05463068204200D1D6E6FFF712
:100BE00041FD401B0228F6D9C2E07F200002716857
:100BF000814305984069000208437060C6E6012100
:100C000088433066FFF72EFD0546306E800700D41E
:100C1000CEE6FFF727FD401B03270228F5D9A7E002
:100C2000049FA5E0F06D04210143F165F06D039987
:100C30000843F065594FFFF715FD0546002C0FD00E
:100C4000F06D80070FD4FFF70DFD401BB842F7D9B8
:100C5000002003270FE0FFF705FD401BB842F7D83F
:100C6000F06D8007F7D40298002803D1F06B01994A
:100C70008843F063012000287AD00598C469002CCD
:100C800075D0B06838210140102903D1012C18D14A
:100C9000049F6DE001273906306804918843306075
:100CA000FFF7E0FC0546022C2CD103977C06306848
:100CB000204232D0FFF7D6FC401B03270228F6D98A
:100CC00056E0F06803210140059B1A6A914252D117
:100CD000702101405A6A914254D17F21090201409A
:100CE0009A6A120291424FD11F2149040140DA6AE7
:100CF0009142049F3CD1072149070840196B884263
:100D000036D134E07C06306820422CD0FFF7AAFCB4
:100D1000401B03270228F6D92AE0F0682149014048
:100D2000059A106A0843516A0143906A0002084319
:100D3000D16A0143106B0843F0603068049908439E
:100D4000306003980007F1680143F160FFF78AFC07
:100D50000546306820420AD1FFF784FC401B032778
:100D60000228F6D904E0F0680D490140F16000273F
:100D7000F8B207B0F0BD049FFAE7C0460010024089
:100D8000049FF5E7049FF3E7049FF1E70024F400D4
:100D900000000020080000200070004088130000C0
:100DA000FCFFFEEF8C80C11F80B500F0E3F880BD32
:100DB000FEE70000F0B583B00520050701242846B2
:100DC00021462246FFF746FC022128462246FFF72D
:100DD00041FC042128462246FFF73CFC0821284616
:100DE0002246FFF737FC102128462246FFF732FC47
:100DF000202128462246FFF72DFC4021029128465B
:100E00002246FFF727FC8021019128462246FFF762
:100E100021FC61030091524D28462246FFF71AFC3F
:100E2000A603284631462246FFF714FCE70328466E
:100E300039462246FFF70EFC474D284602992246C6
:100E4000FFF708FC284601992246FFF703FC2846D5
:100E500000992246FFF7FEFB284631462246FFF75F
:100E6000F9FB284639462246FFF7F4FB03B0F0BDF4
:100E700080B57D200001FFF76DFA052000070121F4
:100E80000022FFF7E7FB80BDF0B589B0002408948D
:100E900007940694059404942E4801680422114393
:100EA00001600168114003910399016820221143F8
:100EB00001600168114003910399016801252943EC
:100EC00001600168294003910399016802221143DE
:100ED000016000681040039003981F4F1F49384677
:100EE0002246FFF7B7FB052000070190FF212246AD
:100EF000FFF7B0FB07204603029619483146224609
:100F0000FFF7A8FB079406950595C036049604AE36
:100F100038463146FFF7D2FA0794069405950495B2
:100F2000019F38463146FFF7C9FA079406950595A3
:100F3000FE20049038463146FFF7C0FA0794069524
:100F400005950298049006483146FFF7B7FA09B0B4
:100F5000F0BDC0463410024000080050C0E0000060
:100F600000040050FEE77047704780B5FFF722FF8E
:100F700080BD0000B0B5401E010E01D00120B0BD03
:100F8000054D68600024E043032100F041F8AC60A7
:100F9000072028602046B0BD10E000E080B5FFF7D4
:100FA00065FB80BDF0B591B004AC34212046FFF75D
:100FB00013F90026039602960196009601277802FF
:100FC000FFF7AEFB7807109078040F9008200E9082
:100FD0000D9602250C950B95402009900896380235
:100FE000079004952046FFF7C1FC00280CD103961A
:100FF000029607200090019568462946FFF7B8FB46
:10100000002801D111B0F0BDFFF71DF970470000B5
:10101000002805D40322034693430C4A9A1806E09D
:101020000F220240083A03239A43074BD218800745
:10103000C00E8901C9B28140FF23834010689843E4
:10104000084310607047C0461CED00E000E400E07B
:10105000FFF716FBFFF7A6FFFFF760F9FFF714FF96
:10106000FFF783FFFFF704FFFCE743088B421AD327
:10107000002203098B4279D3030A8B425ED3030B10
:101080008B4242D3030C8B4227D30902FF2212BAB0
:10109000030C8B4202D31212090203D0030B8B42C2
:1010A00033D31AE0D3E0411A8041401C7047034615
:1010B0000B4371D443088B42F5D3002203098B42C2
:1010C00054D3030A8B4239D3030B8B421DD3030C39
:1010D0008B4202D394466EE0090AC30B8B4201D3C4
:1010E000CB03C01A5241830B8B4201D38B03C01A2E
:1010F0005241430B8B4201D34B03C01A5241030BA5
:101100008B4201D30B03C01A5241C30A8B4201D355
:10111000CB02C01A5241830A8B4201D38B02C01A00
:101120005241430A8B4201D34B02C01A5241030A77
:101130008B4201D30B02C01A5241CDD2C3098B425C
:1011400001D3CB01C01A524183098B4201D38B01D9
:10115000C01A524143098B4201D34B01C01A52417C
:1011600003098B4201D30B01C01A5241C3088B42C1
:1011700001D3CB00C01A524183088B4201D38B00AC
:10118000C01A524143088B4201D34B00C01A52414E
:10119000411A524110007047CA0F00D04942031053
:1011A00000D34042534000229C4603098B422DD37A
:1011B000030A8B4212D38901FC2212BA030A8B4222
:1011C0000CD3890192118B4208D3890192118B4271
:1011D00004D3890137D0921100E08909C3098B42F9
:1011E00001D3CB01C01A524183098B4201D38B0139
:1011F000C01A524143098B4201D34B01C01A5241DC
:1012000003098B4201D30B01C01A5241C3088B4220
:1012100001D3CB00C01A524183088B4201D38B000B
:10122000C01A5241D9D243088B4201D34B00C01A95
:101230005241411A00D201465241104663465B10AA
:1012400000D34042704763465B1000D3404201B573
:101250000021004201D0C9430846C046C04602BD35
:10126000000000000000000000000000000000007E
:10127000000000000000000000000000000000006E
:101280000100000002000000030000000400000054
:101290000600000007000000080000000900000030
:1012A000C012000800000020100000000401000827
:1012B000D012000810000020800600002001000865
:1012C0000024F40001000000040000000000000001
:04000005080000C12E
:00000001FF
